{
  "contractName": "Auction",
  "abi": [
    {
      "inputs": [],
      "stateMutability": "nonpayable",
      "type": "constructor"
    },
    {
      "anonymous": false,
      "inputs": [
        {
          "indexed": true,
          "internalType": "address",
          "name": "owner",
          "type": "address"
        },
        {
          "indexed": true,
          "internalType": "address",
          "name": "approved",
          "type": "address"
        },
        {
          "indexed": true,
          "internalType": "uint256",
          "name": "tokenId",
          "type": "uint256"
        }
      ],
      "name": "Approval",
      "type": "event"
    },
    {
      "anonymous": false,
      "inputs": [
        {
          "indexed": true,
          "internalType": "address",
          "name": "owner",
          "type": "address"
        },
        {
          "indexed": true,
          "internalType": "address",
          "name": "operator",
          "type": "address"
        },
        {
          "indexed": false,
          "internalType": "bool",
          "name": "approved",
          "type": "bool"
        }
      ],
      "name": "ApprovalForAll",
      "type": "event"
    },
    {
      "anonymous": false,
      "inputs": [
        {
          "indexed": true,
          "internalType": "address",
          "name": "from",
          "type": "address"
        },
        {
          "indexed": true,
          "internalType": "address",
          "name": "to",
          "type": "address"
        },
        {
          "indexed": true,
          "internalType": "uint256",
          "name": "tokenId",
          "type": "uint256"
        }
      ],
      "name": "Transfer",
      "type": "event"
    },
    {
      "inputs": [
        {
          "internalType": "address",
          "name": "to",
          "type": "address"
        },
        {
          "internalType": "uint256",
          "name": "tokenId",
          "type": "uint256"
        }
      ],
      "name": "approve",
      "outputs": [],
      "stateMutability": "nonpayable",
      "type": "function"
    },
    {
      "inputs": [
        {
          "internalType": "address",
          "name": "owner",
          "type": "address"
        }
      ],
      "name": "balanceOf",
      "outputs": [
        {
          "internalType": "uint256",
          "name": "",
          "type": "uint256"
        }
      ],
      "stateMutability": "view",
      "type": "function",
      "constant": true
    },
    {
      "inputs": [
        {
          "internalType": "uint256",
          "name": "tokenId",
          "type": "uint256"
        }
      ],
      "name": "getApproved",
      "outputs": [
        {
          "internalType": "address",
          "name": "",
          "type": "address"
        }
      ],
      "stateMutability": "view",
      "type": "function",
      "constant": true
    },
    {
      "inputs": [
        {
          "internalType": "address",
          "name": "owner",
          "type": "address"
        },
        {
          "internalType": "address",
          "name": "operator",
          "type": "address"
        }
      ],
      "name": "isApprovedForAll",
      "outputs": [
        {
          "internalType": "bool",
          "name": "",
          "type": "bool"
        }
      ],
      "stateMutability": "view",
      "type": "function",
      "constant": true
    },
    {
      "inputs": [],
      "name": "name",
      "outputs": [
        {
          "internalType": "string",
          "name": "",
          "type": "string"
        }
      ],
      "stateMutability": "view",
      "type": "function",
      "constant": true
    },
    {
      "inputs": [
        {
          "internalType": "uint256",
          "name": "tokenId",
          "type": "uint256"
        }
      ],
      "name": "ownerOf",
      "outputs": [
        {
          "internalType": "address",
          "name": "",
          "type": "address"
        }
      ],
      "stateMutability": "view",
      "type": "function",
      "constant": true
    },
    {
      "inputs": [
        {
          "internalType": "address",
          "name": "from",
          "type": "address"
        },
        {
          "internalType": "address",
          "name": "to",
          "type": "address"
        },
        {
          "internalType": "uint256",
          "name": "tokenId",
          "type": "uint256"
        }
      ],
      "name": "safeTransferFrom",
      "outputs": [],
      "stateMutability": "nonpayable",
      "type": "function"
    },
    {
      "inputs": [
        {
          "internalType": "address",
          "name": "from",
          "type": "address"
        },
        {
          "internalType": "address",
          "name": "to",
          "type": "address"
        },
        {
          "internalType": "uint256",
          "name": "tokenId",
          "type": "uint256"
        },
        {
          "internalType": "bytes",
          "name": "data",
          "type": "bytes"
        }
      ],
      "name": "safeTransferFrom",
      "outputs": [],
      "stateMutability": "nonpayable",
      "type": "function"
    },
    {
      "inputs": [
        {
          "internalType": "address",
          "name": "operator",
          "type": "address"
        },
        {
          "internalType": "bool",
          "name": "approved",
          "type": "bool"
        }
      ],
      "name": "setApprovalForAll",
      "outputs": [],
      "stateMutability": "nonpayable",
      "type": "function"
    },
    {
      "inputs": [
        {
          "internalType": "bytes4",
          "name": "interfaceId",
          "type": "bytes4"
        }
      ],
      "name": "supportsInterface",
      "outputs": [
        {
          "internalType": "bool",
          "name": "",
          "type": "bool"
        }
      ],
      "stateMutability": "view",
      "type": "function",
      "constant": true
    },
    {
      "inputs": [],
      "name": "symbol",
      "outputs": [
        {
          "internalType": "string",
          "name": "",
          "type": "string"
        }
      ],
      "stateMutability": "view",
      "type": "function",
      "constant": true
    },
    {
      "inputs": [
        {
          "internalType": "uint256",
          "name": "tokenId",
          "type": "uint256"
        }
      ],
      "name": "tokenURI",
      "outputs": [
        {
          "internalType": "string",
          "name": "",
          "type": "string"
        }
      ],
      "stateMutability": "view",
      "type": "function",
      "constant": true
    },
    {
      "inputs": [],
      "name": "total",
      "outputs": [
        {
          "internalType": "uint256",
          "name": "",
          "type": "uint256"
        }
      ],
      "stateMutability": "view",
      "type": "function",
      "constant": true
    },
    {
      "inputs": [
        {
          "internalType": "address",
          "name": "from",
          "type": "address"
        },
        {
          "internalType": "address",
          "name": "to",
          "type": "address"
        },
        {
          "internalType": "uint256",
          "name": "tokenId",
          "type": "uint256"
        }
      ],
      "name": "transferFrom",
      "outputs": [],
      "stateMutability": "nonpayable",
      "type": "function"
    },
    {
      "inputs": [
        {
          "internalType": "string",
          "name": "_name",
          "type": "string"
        }
      ],
      "name": "mint",
      "outputs": [],
      "stateMutability": "payable",
      "type": "function",
      "payable": true
    },
    {
      "inputs": [
        {
          "internalType": "uint256",
          "name": "_Id",
          "type": "uint256"
        }
      ],
      "name": "get",
      "outputs": [
        {
          "components": [
            {
              "internalType": "string",
              "name": "name",
              "type": "string"
            },
            {
              "internalType": "address payable",
              "name": "owner",
              "type": "address"
            },
            {
              "internalType": "address payable",
              "name": "bidder",
              "type": "address"
            },
            {
              "internalType": "uint256",
              "name": "startprice",
              "type": "uint256"
            },
            {
              "internalType": "uint256",
              "name": "minIncrement",
              "type": "uint256"
            },
            {
              "internalType": "uint256",
              "name": "currentPrice",
              "type": "uint256"
            },
            {
              "internalType": "bool",
              "name": "status",
              "type": "bool"
            }
          ],
          "internalType": "struct Auction.elements",
          "name": "",
          "type": "tuple"
        }
      ],
      "stateMutability": "view",
      "type": "function",
      "constant": true
    },
    {
      "inputs": [
        {
          "internalType": "string",
          "name": "_name",
          "type": "string"
        },
        {
          "internalType": "uint256",
          "name": "_startPrice",
          "type": "uint256"
        },
        {
          "internalType": "uint256",
          "name": "_minIncrement",
          "type": "uint256"
        }
      ],
      "name": "add",
      "outputs": [],
      "stateMutability": "nonpayable",
      "type": "function"
    },
    {
      "inputs": [
        {
          "internalType": "string",
          "name": "_nft",
          "type": "string"
        }
      ],
      "name": "bid",
      "outputs": [],
      "stateMutability": "payable",
      "type": "function",
      "payable": true
    },
    {
      "inputs": [
        {
          "internalType": "string",
          "name": "_nft",
          "type": "string"
        }
      ],
      "name": "finalise",
      "outputs": [],
      "stateMutability": "nonpayable",
      "type": "function"
    }
  ],
  "bytecode": "0x608060405260016006553480156200001657600080fd5b506040518060400160405280600881526020017f416268697368656b0000000000000000000000000000000000000000000000008152506040518060400160405280600281526020017f434300000000000000000000000000000000000000000000000000000000000081525081600090805190602001906200009b929190620000bd565b508060019080519060200190620000b4929190620000bd565b505050620001d2565b828054620000cb906200019c565b90600052602060002090601f016020900481019282620000ef57600085556200013b565b82601f106200010a57805160ff19168380011785556200013b565b828001600101855582156200013b579182015b828111156200013a5782518255916020019190600101906200011d565b5b5090506200014a91906200014e565b5090565b5b80821115620001695760008160009055506001016200014f565b5090565b7f4e487b7100000000000000000000000000000000000000000000000000000000600052602260045260246000fd5b60006002820490506001821680620001b557607f821691505b60208210811415620001cc57620001cb6200016d565b5b50919050565b613d6580620001e26000396000f3fe6080604052600436106101145760003560e01c806370a08231116100a0578063b88d4fde11610064578063b88d4fde146103b4578063c8616da5146103dd578063c87b56dd14610406578063d85d3d2714610443578063e985e9c51461045f57610114565b806370a08231146102ca5780637aef951c146103075780639507d39a1461032357806395d89b4114610360578063a22cb4651461038b57610114565b806323b872dd116100e757806323b872dd146101e75780632ddbd13a1461021057806342842e0e1461023b5780634d3c0933146102645780636352211e1461028d57610114565b806301ffc9a71461011957806306fdde0314610156578063081812fc14610181578063095ea7b3146101be575b600080fd5b34801561012557600080fd5b50610140600480360381019061013b91906128bf565b61049c565b60405161014d9190612907565b60405180910390f35b34801561016257600080fd5b5061016b61057e565b60405161017891906129bb565b60405180910390f35b34801561018d57600080fd5b506101a860048036038101906101a39190612a13565b610610565b6040516101b59190612a81565b60405180910390f35b3480156101ca57600080fd5b506101e560048036038101906101e09190612ac8565b610656565b005b3480156101f357600080fd5b5061020e60048036038101906102099190612b08565b61076e565b005b34801561021c57600080fd5b506102256107ce565b6040516102329190612b6a565b60405180910390f35b34801561024757600080fd5b50610262600480360381019061025d9190612b08565b6107d4565b005b34801561027057600080fd5b5061028b60048036038101906102869190612cba565b6107f4565b005b34801561029957600080fd5b506102b460048036038101906102af9190612a13565b610bd7565b6040516102c19190612a81565b60405180910390f35b3480156102d657600080fd5b506102f160048036038101906102ec9190612d03565b610c89565b6040516102fe9190612b6a565b60405180910390f35b610321600480360381019061031c9190612cba565b610d41565b005b34801561032f57600080fd5b5061034a60048036038101906103459190612a13565b6112c9565b6040516103579190612e55565b60405180910390f35b34801561036c57600080fd5b5061037561146d565b60405161038291906129bb565b60405180910390f35b34801561039757600080fd5b506103b260048036038101906103ad9190612ea3565b6114ff565b005b3480156103c057600080fd5b506103db60048036038101906103d69190612f84565b611515565b005b3480156103e957600080fd5b5061040460048036038101906103ff9190613007565b611577565b005b34801561041257600080fd5b5061042d60048036038101906104289190612a13565b6118b2565b60405161043a91906129bb565b60405180910390f35b61045d60048036038101906104589190612cba565b61191a565b005b34801561046b57600080fd5b5061048660048036038101906104819190613076565b611ac1565b6040516104939190612907565b60405180910390f35b60007f80ac58cd000000000000000000000000000000000000000000000000000000007bffffffffffffffffffffffffffffffffffffffffffffffffffffffff1916827bffffffffffffffffffffffffffffffffffffffffffffffffffffffff1916148061056757507f5b5e139f000000000000000000000000000000000000000000000000000000007bffffffffffffffffffffffffffffffffffffffffffffffffffffffff1916827bffffffffffffffffffffffffffffffffffffffffffffffffffffffff1916145b80610577575061057682611b55565b5b9050919050565b60606000805461058d906130e5565b80601f01602080910402602001604051908101604052809291908181526020018280546105b9906130e5565b80156106065780601f106105db57610100808354040283529160200191610606565b820191906000526020600020905b8154815290600101906020018083116105e957829003601f168201915b5050505050905090565b600061061b82611bbf565b6004600083815260200190815260200160002060009054906101000a900473ffffffffffffffffffffffffffffffffffffffff169050919050565b600061066182610bd7565b90508073ffffffffffffffffffffffffffffffffffffffff168373ffffffffffffffffffffffffffffffffffffffff1614156106d2576040517f08c379a00000000000000000000000000000000000000000000000000000000081526004016106c990613189565b60405180910390fd5b8073ffffffffffffffffffffffffffffffffffffffff166106f1611c0a565b73ffffffffffffffffffffffffffffffffffffffff161480610720575061071f8161071a611c0a565b611ac1565b5b61075f576040517f08c379a00000000000000000000000000000000000000000000000000000000081526004016107569061321b565b60405180910390fd5b6107698383611c12565b505050565b61077f610779611c0a565b82611ccb565b6107be576040517f08c379a00000000000000000000000000000000000000000000000000000000081526004016107b5906132ad565b60405180910390fd5b6107c9838383611d60565b505050565b60065481565b6107ef83838360405180602001604052806000815250611515565b505050565b60006007826040516108069190613309565b90815260200160405180910390206040518060800160405290816000820160009054906101000a900460ff161515151581526020016000820160019054906101000a900460ff161515151581526020016000820160029054906101000a900473ffffffffffffffffffffffffffffffffffffffff1673ffffffffffffffffffffffffffffffffffffffff1673ffffffffffffffffffffffffffffffffffffffff1681526020016001820154815250509050600060086000836060015181526020019081526020016000206040518060e00160405290816000820180546108eb906130e5565b80601f0160208091040260200160405190810160405280929190818152602001828054610917906130e5565b80156109645780601f1061093957610100808354040283529160200191610964565b820191906000526020600020905b81548152906001019060200180831161094757829003601f168201915b505050505081526020016001820160009054906101000a900473ffffffffffffffffffffffffffffffffffffffff1673ffffffffffffffffffffffffffffffffffffffff1673ffffffffffffffffffffffffffffffffffffffff1681526020016002820160009054906101000a900473ffffffffffffffffffffffffffffffffffffffff1673ffffffffffffffffffffffffffffffffffffffff1673ffffffffffffffffffffffffffffffffffffffff1681526020016003820154815260200160048201548152602001600582015481526020016006820160009054906101000a900460ff16151515158152505090503373ffffffffffffffffffffffffffffffffffffffff16816020015173ffffffffffffffffffffffffffffffffffffffff1614610ac6576040517f08c379a0000000000000000000000000000000000000000000000000000000008152600401610abd9061336c565b60405180910390fd5b3373ffffffffffffffffffffffffffffffffffffffff16816040015173ffffffffffffffffffffffffffffffffffffffff1614610b7457610b14816020015182604001518460600151611d60565b6000816020015173ffffffffffffffffffffffffffffffffffffffff166108fc670de0b6b3a76400008460a00151610b4c91906133bb565b9081150290604051600060405180830381858888f19350505050905080610b7257600080fd5b505b60008160c00190151590811515815250508060400151826040019073ffffffffffffffffffffffffffffffffffffffff16908173ffffffffffffffffffffffffffffffffffffffff16815250506000826020019015159081151581525050505050565b6000806002600084815260200190815260200160002060009054906101000a900473ffffffffffffffffffffffffffffffffffffffff169050600073ffffffffffffffffffffffffffffffffffffffff168173ffffffffffffffffffffffffffffffffffffffff161415610c80576040517f08c379a0000000000000000000000000000000000000000000000000000000008152600401610c7790613461565b60405180910390fd5b80915050919050565b60008073ffffffffffffffffffffffffffffffffffffffff168273ffffffffffffffffffffffffffffffffffffffff161415610cfa576040517f08c379a0000000000000000000000000000000000000000000000000000000008152600401610cf1906134f3565b60405180910390fd5b600360008373ffffffffffffffffffffffffffffffffffffffff1673ffffffffffffffffffffffffffffffffffffffff168152602001908152602001600020549050919050565b6000600782604051610d539190613309565b90815260200160405180910390206040518060800160405290816000820160009054906101000a900460ff161515151581526020016000820160019054906101000a900460ff161515151581526020016000820160029054906101000a900473ffffffffffffffffffffffffffffffffffffffff1673ffffffffffffffffffffffffffffffffffffffff1673ffffffffffffffffffffffffffffffffffffffff1681526020016001820154815250509050600060086000836060015181526020019081526020016000206040518060e0016040529081600082018054610e38906130e5565b80601f0160208091040260200160405190810160405280929190818152602001828054610e64906130e5565b8015610eb15780601f10610e8657610100808354040283529160200191610eb1565b820191906000526020600020905b815481529060010190602001808311610e9457829003601f168201915b505050505081526020016001820160009054906101000a900473ffffffffffffffffffffffffffffffffffffffff1673ffffffffffffffffffffffffffffffffffffffff1673ffffffffffffffffffffffffffffffffffffffff1681526020016002820160009054906101000a900473ffffffffffffffffffffffffffffffffffffffff1673ffffffffffffffffffffffffffffffffffffffff1673ffffffffffffffffffffffffffffffffffffffff1681526020016003820154815260200160048201548152602001600582015481526020016006820160009054906101000a900460ff1615151515815250509050600081608001518260a00151610fb79190613513565b9050670de0b6b3a764000081610fcd91906133bb565b90508160c00151611013576040517f08c379a000000000000000000000000000000000000000000000000000000000815260040161100a906135b5565b60405180910390fd5b80341015611056576040517f08c379a000000000000000000000000000000000000000000000000000000000815260040161104d90613621565b60405180910390fd5b816020015173ffffffffffffffffffffffffffffffffffffffff163373ffffffffffffffffffffffffffffffffffffffff1614156110c9576040517f08c379a00000000000000000000000000000000000000000000000000000000081526004016110c09061368d565b60405180910390fd5b816020015173ffffffffffffffffffffffffffffffffffffffff16826040015173ffffffffffffffffffffffffffffffffffffffff1614611164576000826040015173ffffffffffffffffffffffffffffffffffffffff166108fc670de0b6b3a76400008560a0015161113c91906133bb565b9081150290604051600060405180830381858888f1935050505090508061116257600080fd5b505b600033905080836040019073ffffffffffffffffffffffffffffffffffffffff16908173ffffffffffffffffffffffffffffffffffffffff1681525050670de0b6b3a7640000346111b591906136dc565b8360a001818152505082600860008660600151815260200190815260200160002060008201518160000190805190602001906111f2929190612703565b5060208201518160010160006101000a81548173ffffffffffffffffffffffffffffffffffffffff021916908373ffffffffffffffffffffffffffffffffffffffff16021790555060408201518160020160006101000a81548173ffffffffffffffffffffffffffffffffffffffff021916908373ffffffffffffffffffffffffffffffffffffffff160217905550606082015181600301556080820151816004015560a0820151816005015560c08201518160060160006101000a81548160ff0219169083151502179055509050505050505050565b6112d1612789565b600860008381526020019081526020016000206040518060e00160405290816000820180546112ff906130e5565b80601f016020809104026020016040519081016040528092919081815260200182805461132b906130e5565b80156113785780601f1061134d57610100808354040283529160200191611378565b820191906000526020600020905b81548152906001019060200180831161135b57829003601f168201915b505050505081526020016001820160009054906101000a900473ffffffffffffffffffffffffffffffffffffffff1673ffffffffffffffffffffffffffffffffffffffff1673ffffffffffffffffffffffffffffffffffffffff1681526020016002820160009054906101000a900473ffffffffffffffffffffffffffffffffffffffff1673ffffffffffffffffffffffffffffffffffffffff1673ffffffffffffffffffffffffffffffffffffffff1681526020016003820154815260200160048201548152602001600582015481526020016006820160009054906101000a900460ff1615151515815250509050919050565b60606001805461147c906130e5565b80601f01602080910402602001604051908101604052809291908181526020018280546114a8906130e5565b80156114f55780601f106114ca576101008083540402835291602001916114f5565b820191906000526020600020905b8154815290600101906020018083116114d857829003601f168201915b5050505050905090565b61151161150a611c0a565b8383611fc7565b5050565b611526611520611c0a565b83611ccb565b611565576040517f08c379a000000000000000000000000000000000000000000000000000000000815260040161155c906132ad565b60405180910390fd5b61157184848484612134565b50505050565b6007836040516115879190613309565b908152602001604051809103902060000160019054906101000a900460ff16156115e6576040517f08c379a00000000000000000000000000000000000000000000000000000000081526004016115dd90613759565b60405180910390fd5b3373ffffffffffffffffffffffffffffffffffffffff1660078460405161160d9190613309565b908152602001604051809103902060000160029054906101000a900473ffffffffffffffffffffffffffffffffffffffff1673ffffffffffffffffffffffffffffffffffffffff1614611695576040517f08c379a000000000000000000000000000000000000000000000000000000000815260040161168c906137c5565b60405180910390fd5b60003390506116a2612789565b60006007866040516116b49190613309565b90815260200160405180910390206001015490508582600001819052508482606001818152505083826080018181525050848260a001818152505082826020019073ffffffffffffffffffffffffffffffffffffffff16908173ffffffffffffffffffffffffffffffffffffffff168152505060018260c001901515908115158152505082826040019073ffffffffffffffffffffffffffffffffffffffff16908173ffffffffffffffffffffffffffffffffffffffff1681525050816008600083815260200190815260200160002060008201518160000190805190602001906117a0929190612703565b5060208201518160010160006101000a81548173ffffffffffffffffffffffffffffffffffffffff021916908373ffffffffffffffffffffffffffffffffffffffff16021790555060408201518160020160006101000a81548173ffffffffffffffffffffffffffffffffffffffff021916908373ffffffffffffffffffffffffffffffffffffffff160217905550606082015181600301556080820151816004015560a0820151816005015560c08201518160060160006101000a81548160ff02191690831515021790555090505060016007876040516118829190613309565b908152602001604051809103902060000160016101000a81548160ff021916908315150217905550505050505050565b60606118bd82611bbf565b60006118c7612190565b905060008151116118e75760405180602001604052806000815250611912565b806118f1846121a7565b6040516020016119029291906137e5565b6040516020818303038152906040525b915050919050565b60078160405161192a9190613309565b908152602001604051809103902060000160009054906101000a900460ff1615611989576040517f08c379a000000000000000000000000000000000000000000000000000000000815260040161198090613855565b60405180910390fd5b6119916127f4565b33816040019073ffffffffffffffffffffffffffffffffffffffff16908173ffffffffffffffffffffffffffffffffffffffff16815250506006548160600181815250506001816000019015159081151581525050806007836040516119f79190613309565b908152602001604051809103902060008201518160000160006101000a81548160ff02191690831515021790555060208201518160000160016101000a81548160ff02191690831515021790555060408201518160000160026101000a81548173ffffffffffffffffffffffffffffffffffffffff021916908373ffffffffffffffffffffffffffffffffffffffff16021790555060608201518160010155905050611aa533600654612308565b60066000815480929190611ab890613875565b91905055505050565b6000600560008473ffffffffffffffffffffffffffffffffffffffff1673ffffffffffffffffffffffffffffffffffffffff16815260200190815260200160002060008373ffffffffffffffffffffffffffffffffffffffff1673ffffffffffffffffffffffffffffffffffffffff16815260200190815260200160002060009054906101000a900460ff16905092915050565b60007f01ffc9a7000000000000000000000000000000000000000000000000000000007bffffffffffffffffffffffffffffffffffffffffffffffffffffffff1916827bffffffffffffffffffffffffffffffffffffffffffffffffffffffff1916149050919050565b611bc8816124e2565b611c07576040517f08c379a0000000000000000000000000000000000000000000000000000000008152600401611bfe90613461565b60405180910390fd5b50565b600033905090565b816004600083815260200190815260200160002060006101000a81548173ffffffffffffffffffffffffffffffffffffffff021916908373ffffffffffffffffffffffffffffffffffffffff160217905550808273ffffffffffffffffffffffffffffffffffffffff16611c8583610bd7565b73ffffffffffffffffffffffffffffffffffffffff167f8c5be1e5ebec7d5bd14f71427d1e84f3dd0314c0f7b2291e5b200ac8c7c3b92560405160405180910390a45050565b600080611cd783610bd7565b90508073ffffffffffffffffffffffffffffffffffffffff168473ffffffffffffffffffffffffffffffffffffffff161480611d195750611d188185611ac1565b5b80611d5757508373ffffffffffffffffffffffffffffffffffffffff16611d3f84610610565b73ffffffffffffffffffffffffffffffffffffffff16145b91505092915050565b8273ffffffffffffffffffffffffffffffffffffffff16611d8082610bd7565b73ffffffffffffffffffffffffffffffffffffffff1614611dd6576040517f08c379a0000000000000000000000000000000000000000000000000000000008152600401611dcd90613930565b60405180910390fd5b600073ffffffffffffffffffffffffffffffffffffffff168273ffffffffffffffffffffffffffffffffffffffff161415611e46576040517f08c379a0000000000000000000000000000000000000000000000000000000008152600401611e3d906139c2565b60405180910390fd5b611e5183838361254e565b611e5c600082611c12565b6001600360008573ffffffffffffffffffffffffffffffffffffffff1673ffffffffffffffffffffffffffffffffffffffff1681526020019081526020016000206000828254611eac91906139e2565b925050819055506001600360008473ffffffffffffffffffffffffffffffffffffffff1673ffffffffffffffffffffffffffffffffffffffff1681526020019081526020016000206000828254611f039190613513565b92505081905550816002600083815260200190815260200160002060006101000a81548173ffffffffffffffffffffffffffffffffffffffff021916908373ffffffffffffffffffffffffffffffffffffffff160217905550808273ffffffffffffffffffffffffffffffffffffffff168473ffffffffffffffffffffffffffffffffffffffff167fddf252ad1be2c89b69c2b068fc378daa952ba7f163c4a11628f55a4df523b3ef60405160405180910390a4611fc2838383612553565b505050565b8173ffffffffffffffffffffffffffffffffffffffff168373ffffffffffffffffffffffffffffffffffffffff161415612036576040517f08c379a000000000000000000000000000000000000000000000000000000000815260040161202d90613a62565b60405180910390fd5b80600560008573ffffffffffffffffffffffffffffffffffffffff1673ffffffffffffffffffffffffffffffffffffffff16815260200190815260200160002060008473ffffffffffffffffffffffffffffffffffffffff1673ffffffffffffffffffffffffffffffffffffffff16815260200190815260200160002060006101000a81548160ff0219169083151502179055508173ffffffffffffffffffffffffffffffffffffffff168373ffffffffffffffffffffffffffffffffffffffff167f17307eab39ab6107e8899845ad3d59bd9653f200f220920489ca2b5937696c31836040516121279190612907565b60405180910390a3505050565b61213f848484611d60565b61214b84848484612558565b61218a576040517f08c379a000000000000000000000000000000000000000000000000000000000815260040161218190613af4565b60405180910390fd5b50505050565b606060405180602001604052806000815250905090565b606060008214156121ef576040518060400160405280600181526020017f30000000000000000000000000000000000000000000000000000000000000008152509050612303565b600082905060005b6000821461222157808061220a90613875565b915050600a8261221a91906136dc565b91506121f7565b60008167ffffffffffffffff81111561223d5761223c612b8f565b5b6040519080825280601f01601f19166020018201604052801561226f5781602001600182028036833780820191505090505b5090505b600085146122fc5760018261228891906139e2565b9150600a856122979190613b14565b60306122a39190613513565b60f81b8183815181106122b9576122b8613b45565b5b60200101907effffffffffffffffffffffffffffffffffffffffffffffffffffffffffffff1916908160001a905350600a856122f591906136dc565b9450612273565b8093505050505b919050565b600073ffffffffffffffffffffffffffffffffffffffff168273ffffffffffffffffffffffffffffffffffffffff161415612378576040517f08c379a000000000000000000000000000000000000000000000000000000000815260040161236f90613bc0565b60405180910390fd5b612381816124e2565b156123c1576040517f08c379a00000000000000000000000000000000000000000000000000000000081526004016123b890613c2c565b60405180910390fd5b6123cd6000838361254e565b6001600360008473ffffffffffffffffffffffffffffffffffffffff1673ffffffffffffffffffffffffffffffffffffffff168152602001908152602001600020600082825461241d9190613513565b92505081905550816002600083815260200190815260200160002060006101000a81548173ffffffffffffffffffffffffffffffffffffffff021916908373ffffffffffffffffffffffffffffffffffffffff160217905550808273ffffffffffffffffffffffffffffffffffffffff16600073ffffffffffffffffffffffffffffffffffffffff167fddf252ad1be2c89b69c2b068fc378daa952ba7f163c4a11628f55a4df523b3ef60405160405180910390a46124de60008383612553565b5050565b60008073ffffffffffffffffffffffffffffffffffffffff166002600084815260200190815260200160002060009054906101000a900473ffffffffffffffffffffffffffffffffffffffff1673ffffffffffffffffffffffffffffffffffffffff1614159050919050565b505050565b505050565b60006125798473ffffffffffffffffffffffffffffffffffffffff166126e0565b156126d3578373ffffffffffffffffffffffffffffffffffffffff1663150b7a026125a2611c0a565b8786866040518563ffffffff1660e01b81526004016125c49493929190613ca1565b6020604051808303816000875af192505050801561260057506040513d601f19601f820116820180604052508101906125fd9190613d02565b60015b612683573d8060008114612630576040519150601f19603f3d011682016040523d82523d6000602084013e612635565b606091505b5060008151141561267b576040517f08c379a000000000000000000000000000000000000000000000000000000000815260040161267290613af4565b60405180910390fd5b805181602001fd5b63150b7a0260e01b7bffffffffffffffffffffffffffffffffffffffffffffffffffffffff1916817bffffffffffffffffffffffffffffffffffffffffffffffffffffffff1916149150506126d8565b600190505b949350505050565b6000808273ffffffffffffffffffffffffffffffffffffffff163b119050919050565b82805461270f906130e5565b90600052602060002090601f0160209004810192826127315760008555612778565b82601f1061274a57805160ff1916838001178555612778565b82800160010185558215612778579182015b8281111561277757825182559160200191906001019061275c565b5b5090506127859190612836565b5090565b6040518060e0016040528060608152602001600073ffffffffffffffffffffffffffffffffffffffff168152602001600073ffffffffffffffffffffffffffffffffffffffff1681526020016000815260200160008152602001600081526020016000151581525090565b6040518060800160405280600015158152602001600015158152602001600073ffffffffffffffffffffffffffffffffffffffff168152602001600081525090565b5b8082111561284f576000816000905550600101612837565b5090565b6000604051905090565b600080fd5b600080fd5b60007fffffffff0000000000000000000000000000000000000000000000000000000082169050919050565b61289c81612867565b81146128a757600080fd5b50565b6000813590506128b981612893565b92915050565b6000602082840312156128d5576128d461285d565b5b60006128e3848285016128aa565b91505092915050565b60008115159050919050565b612901816128ec565b82525050565b600060208201905061291c60008301846128f8565b92915050565b600081519050919050565b600082825260208201905092915050565b60005b8381101561295c578082015181840152602081019050612941565b8381111561296b576000848401525b50505050565b6000601f19601f8301169050919050565b600061298d82612922565b612997818561292d565b93506129a781856020860161293e565b6129b081612971565b840191505092915050565b600060208201905081810360008301526129d58184612982565b905092915050565b6000819050919050565b6129f0816129dd565b81146129fb57600080fd5b50565b600081359050612a0d816129e7565b92915050565b600060208284031215612a2957612a2861285d565b5b6000612a37848285016129fe565b91505092915050565b600073ffffffffffffffffffffffffffffffffffffffff82169050919050565b6000612a6b82612a40565b9050919050565b612a7b81612a60565b82525050565b6000602082019050612a966000830184612a72565b92915050565b612aa581612a60565b8114612ab057600080fd5b50565b600081359050612ac281612a9c565b92915050565b60008060408385031215612adf57612ade61285d565b5b6000612aed85828601612ab3565b9250506020612afe858286016129fe565b9150509250929050565b600080600060608486031215612b2157612b2061285d565b5b6000612b2f86828701612ab3565b9350506020612b4086828701612ab3565b9250506040612b51868287016129fe565b9150509250925092565b612b64816129dd565b82525050565b6000602082019050612b7f6000830184612b5b565b92915050565b600080fd5b600080fd5b7f4e487b7100000000000000000000000000000000000000000000000000000000600052604160045260246000fd5b612bc782612971565b810181811067ffffffffffffffff82111715612be657612be5612b8f565b5b80604052505050565b6000612bf9612853565b9050612c058282612bbe565b919050565b600067ffffffffffffffff821115612c2557612c24612b8f565b5b612c2e82612971565b9050602081019050919050565b82818337600083830152505050565b6000612c5d612c5884612c0a565b612bef565b905082815260208101848484011115612c7957612c78612b8a565b5b612c84848285612c3b565b509392505050565b600082601f830112612ca157612ca0612b85565b5b8135612cb1848260208601612c4a565b91505092915050565b600060208284031215612cd057612ccf61285d565b5b600082013567ffffffffffffffff811115612cee57612ced612862565b5b612cfa84828501612c8c565b91505092915050565b600060208284031215612d1957612d1861285d565b5b6000612d2784828501612ab3565b91505092915050565b600082825260208201905092915050565b6000612d4c82612922565b612d568185612d30565b9350612d6681856020860161293e565b612d6f81612971565b840191505092915050565b6000612d8582612a40565b9050919050565b612d9581612d7a565b82525050565b612da4816129dd565b82525050565b612db3816128ec565b82525050565b600060e0830160008301518482036000860152612dd68282612d41565b9150506020830151612deb6020860182612d8c565b506040830151612dfe6040860182612d8c565b506060830151612e116060860182612d9b565b506080830151612e246080860182612d9b565b5060a0830151612e3760a0860182612d9b565b5060c0830151612e4a60c0860182612daa565b508091505092915050565b60006020820190508181036000830152612e6f8184612db9565b905092915050565b612e80816128ec565b8114612e8b57600080fd5b50565b600081359050612e9d81612e77565b92915050565b60008060408385031215612eba57612eb961285d565b5b6000612ec885828601612ab3565b9250506020612ed985828601612e8e565b9150509250929050565b600067ffffffffffffffff821115612efe57612efd612b8f565b5b612f0782612971565b9050602081019050919050565b6000612f27612f2284612ee3565b612bef565b905082815260208101848484011115612f4357612f42612b8a565b5b612f4e848285612c3b565b509392505050565b600082601f830112612f6b57612f6a612b85565b5b8135612f7b848260208601612f14565b91505092915050565b60008060008060808587031215612f9e57612f9d61285d565b5b6000612fac87828801612ab3565b9450506020612fbd87828801612ab3565b9350506040612fce878288016129fe565b925050606085013567ffffffffffffffff811115612fef57612fee612862565b5b612ffb87828801612f56565b91505092959194509250565b6000806000606084860312156130205761301f61285d565b5b600084013567ffffffffffffffff81111561303e5761303d612862565b5b61304a86828701612c8c565b935050602061305b868287016129fe565b925050604061306c868287016129fe565b9150509250925092565b6000806040838503121561308d5761308c61285d565b5b600061309b85828601612ab3565b92505060206130ac85828601612ab3565b9150509250929050565b7f4e487b7100000000000000000000000000000000000000000000000000000000600052602260045260246000fd5b600060028204905060018216806130fd57607f821691505b60208210811415613111576131106130b6565b5b50919050565b7f4552433732313a20617070726f76616c20746f2063757272656e74206f776e6560008201527f7200000000000000000000000000000000000000000000000000000000000000602082015250565b600061317360218361292d565b915061317e82613117565b604082019050919050565b600060208201905081810360008301526131a281613166565b9050919050565b7f4552433732313a20617070726f76652063616c6c6572206973206e6f7420746f60008201527f6b656e206f776e6572206e6f7220617070726f76656420666f7220616c6c0000602082015250565b6000613205603e8361292d565b9150613210826131a9565b604082019050919050565b60006020820190508181036000830152613234816131f8565b9050919050565b7f4552433732313a2063616c6c6572206973206e6f7420746f6b656e206f776e6560008201527f72206e6f7220617070726f766564000000000000000000000000000000000000602082015250565b6000613297602e8361292d565b91506132a28261323b565b604082019050919050565b600060208201905081810360008301526132c68161328a565b9050919050565b600081905092915050565b60006132e382612922565b6132ed81856132cd565b93506132fd81856020860161293e565b80840191505092915050565b600061331582846132d8565b915081905092915050565b7f6e6f7420746865206f6e77657200000000000000000000000000000000000000600082015250565b6000613356600d8361292d565b915061336182613320565b602082019050919050565b6000602082019050818103600083015261338581613349565b9050919050565b7f4e487b7100000000000000000000000000000000000000000000000000000000600052601160045260246000fd5b60006133c6826129dd565b91506133d1836129dd565b9250817fffffffffffffffffffffffffffffffffffffffffffffffffffffffffffffffff048311821515161561340a5761340961338c565b5b828202905092915050565b7f4552433732313a20696e76616c696420746f6b656e2049440000000000000000600082015250565b600061344b60188361292d565b915061345682613415565b602082019050919050565b6000602082019050818103600083015261347a8161343e565b9050919050565b7f4552433732313a2061646472657373207a65726f206973206e6f74206120766160008201527f6c6964206f776e65720000000000000000000000000000000000000000000000602082015250565b60006134dd60298361292d565b91506134e882613481565b604082019050919050565b6000602082019050818103600083015261350c816134d0565b9050919050565b600061351e826129dd565b9150613529836129dd565b9250827fffffffffffffffffffffffffffffffffffffffffffffffffffffffffffffffff0382111561355e5761355d61338c565b5b828201905092915050565b7f4e41000000000000000000000000000000000000000000000000000000000000600082015250565b600061359f60028361292d565b91506135aa82613569565b602082019050919050565b600060208201905081810360008301526135ce81613592565b9050919050565b7f6e6f7420656e6f75676820626964000000000000000000000000000000000000600082015250565b600061360b600e8361292d565b9150613616826135d5565b602082019050919050565b6000602082019050818103600083015261363a816135fe565b9050919050565b7f796f752061726520746865206f776e6572000000000000000000000000000000600082015250565b600061367760118361292d565b915061368282613641565b602082019050919050565b600060208201905081810360008301526136a68161366a565b9050919050565b7f4e487b7100000000000000000000000000000000000000000000000000000000600052601260045260246000fd5b60006136e7826129dd565b91506136f2836129dd565b925082613702576137016136ad565b5b828204905092915050565b7f416c726561647920616e2061756374696f6e2065786973747300000000000000600082015250565b600061374360198361292d565b915061374e8261370d565b602082019050919050565b6000602082019050818103600083015261377281613736565b9050919050565b7f796f7520617265206e6f7420746865206f776e65720000000000000000000000600082015250565b60006137af60158361292d565b91506137ba82613779565b602082019050919050565b600060208201905081810360008301526137de816137a2565b9050919050565b60006137f182856132d8565b91506137fd82846132d8565b91508190509392505050565b7f416c726561647920457869737473000000000000000000000000000000000000600082015250565b600061383f600e8361292d565b915061384a82613809565b602082019050919050565b6000602082019050818103600083015261386e81613832565b9050919050565b6000613880826129dd565b91507fffffffffffffffffffffffffffffffffffffffffffffffffffffffffffffffff8214156138b3576138b261338c565b5b600182019050919050565b7f4552433732313a207472616e736665722066726f6d20696e636f72726563742060008201527f6f776e6572000000000000000000000000000000000000000000000000000000602082015250565b600061391a60258361292d565b9150613925826138be565b604082019050919050565b600060208201905081810360008301526139498161390d565b9050919050565b7f4552433732313a207472616e7366657220746f20746865207a65726f2061646460008201527f7265737300000000000000000000000000000000000000000000000000000000602082015250565b60006139ac60248361292d565b91506139b782613950565b604082019050919050565b600060208201905081810360008301526139db8161399f565b9050919050565b60006139ed826129dd565b91506139f8836129dd565b925082821015613a0b57613a0a61338c565b5b828203905092915050565b7f4552433732313a20617070726f766520746f2063616c6c657200000000000000600082015250565b6000613a4c60198361292d565b9150613a5782613a16565b602082019050919050565b60006020820190508181036000830152613a7b81613a3f565b9050919050565b7f4552433732313a207472616e7366657220746f206e6f6e20455243373231526560008201527f63656976657220696d706c656d656e7465720000000000000000000000000000602082015250565b6000613ade60328361292d565b9150613ae982613a82565b604082019050919050565b60006020820190508181036000830152613b0d81613ad1565b9050919050565b6000613b1f826129dd565b9150613b2a836129dd565b925082613b3a57613b396136ad565b5b828206905092915050565b7f4e487b7100000000000000000000000000000000000000000000000000000000600052603260045260246000fd5b7f4552433732313a206d696e7420746f20746865207a65726f2061646472657373600082015250565b6000613baa60208361292d565b9150613bb582613b74565b602082019050919050565b60006020820190508181036000830152613bd981613b9d565b9050919050565b7f4552433732313a20746f6b656e20616c7265616479206d696e74656400000000600082015250565b6000613c16601c8361292d565b9150613c2182613be0565b602082019050919050565b60006020820190508181036000830152613c4581613c09565b9050919050565b600081519050919050565b600082825260208201905092915050565b6000613c7382613c4c565b613c7d8185613c57565b9350613c8d81856020860161293e565b613c9681612971565b840191505092915050565b6000608082019050613cb66000830187612a72565b613cc36020830186612a72565b613cd06040830185612b5b565b8181036060830152613ce28184613c68565b905095945050505050565b600081519050613cfc81612893565b92915050565b600060208284031215613d1857613d1761285d565b5b6000613d2684828501613ced565b9150509291505056fea264697066735822122024b8297462d4152a97a9627a3f781c814aa2ce09b875422fcac3522c5ed7199664736f6c634300080b0033",
  "immutableReferences": {},
  "source": "// SPDX-License-Identifier: MIT\r\npragma solidity ^0.8.0;\r\n\r\nimport \"../client/node_modules/@openzeppelin/contracts/token/ERC721/ERC721.sol\";\r\n//import \"../client/node_modules/@openzeppelin/contracts/token/ERC721/extensions/ERC721Enumerable.sol\";\r\n\r\n\r\ncontract Auction is ERC721 {\r\n\r\n\r\n    struct elements{\r\n        string name;\r\n        address payable owner;\r\n        address payable bidder;\r\n        uint startprice;\r\n        uint minIncrement;\r\n        uint currentPrice;\r\n        bool status;\r\n    }\r\n\r\n    struct nft{\r\n        bool used;\r\n        bool onauction;\r\n        address owner;\r\n        uint id;\r\n    }\r\n    uint public total= 1;\r\n\r\n\r\n    mapping(string => nft) nftlist; \r\n    mapping(uint => elements) auctions;\r\n\r\n\r\n\r\n    constructor() ERC721(\"Abhishek\", \"CC\") {\r\n        // mint(\"abhi\");\r\n        // mint(\"abcd\");\r\n        // add(\"abhi\",10,2,10);\r\n        // add(\"abcd\",20,1,12);\r\n    }\r\n\r\n    function mint(string memory _name) public payable{\r\n        \r\n        require(!nftlist[_name].used,\"Already Exists\");\r\n\r\n        nft memory cur;\r\n        cur.owner = msg.sender;\r\n        cur.id = total;\r\n        cur.used = true;\r\n\r\n        nftlist[_name] = cur;\r\n        _mint(msg.sender, total);\r\n        total++;\r\n    }\r\n\r\n    function get(uint _Id) public view returns(elements memory) {\r\n        \r\n        return auctions[_Id];\r\n    }\r\n\r\n    function add(string memory _name,uint _startPrice,uint _minIncrement) public{\r\n        \r\n        require(!nftlist[_name].onauction,\"Already an auction exists\");\r\n        require(nftlist[_name].owner==msg.sender,\"you are not the owner\");\r\n\r\n        address payable _owner = payable(msg.sender);\r\n\r\n        elements memory cur;\r\n        uint _id = nftlist[_name].id;\r\n        cur.name = _name;\r\n        cur.startprice = _startPrice;\r\n        cur.minIncrement = _minIncrement;\r\n        cur.currentPrice = _startPrice;\r\n        cur.owner = _owner;\r\n        cur.status = true;\r\n        cur.bidder = _owner;\r\n        auctions[_id] = cur;\r\n        nftlist[_name].onauction = true;\r\n    }\r\n\r\n    function bid(string memory _nft) public payable{\r\n        nft memory nftcur = nftlist[_nft];\r\n        elements memory cur = auctions[nftcur.id];\r\n        uint minamount = cur.currentPrice + cur.minIncrement;\r\n        minamount *= 1000000000000000000;\r\n        require(cur.status,\"NA\");\r\n        require(msg.value>=minamount, \"not enough bid\");\r\n        require(msg.sender!=cur.owner,\"you are the owner\");\r\n\r\n        if(cur.bidder!=cur.owner){\r\n            bool check = cur.bidder.send(cur.currentPrice*1000000000000000000);\r\n            if(!check) revert();\r\n        }\r\n\r\n        address payable _bidder = payable(msg.sender);\r\n        cur.bidder = _bidder;\r\n        cur.currentPrice = msg.value/(1 ether);\r\n\r\n        auctions[nftcur.id] =cur;\r\n    }\r\n\r\n    function finalise(string memory _nft) public{\r\n        nft memory nftcur = nftlist[_nft];\r\n        elements memory cur = auctions[nftcur.id];\r\n\r\n        require(cur.owner==msg.sender,\"not the onwer\");\r\n        \r\n        if(cur.bidder!=msg.sender){\r\n            _transfer(cur.owner, cur.bidder, nftcur.id);\r\n            bool check = cur.owner.send(cur.currentPrice*1000000000000000000);\r\n            if(!check) revert();\r\n        }\r\n\r\n        cur.status = false;\r\n        nftcur.owner = cur.bidder;\r\n        nftcur.onauction = false;\r\n    \r\n    }\r\n\r\n   \r\n}",
  "sourcePath": "D:\\projects\\nftauction\\crypto-coders\\contracts\\Auction.sol",
  "compiler": {
    "name": "solc",
    "version": "0.8.11+commit.d7f03943.Emscripten.clang"
  },
  "schemaVersion": "3.4.8",
  "updatedAt": "2022-08-15T20:15:29.337Z",
  "networkType": "ethereum",
  "devdoc": {
    "kind": "dev",
    "methods": {
      "approve(address,uint256)": {
        "details": "See {IERC721-approve}."
      },
      "balanceOf(address)": {
        "details": "See {IERC721-balanceOf}."
      },
      "getApproved(uint256)": {
        "details": "See {IERC721-getApproved}."
      },
      "isApprovedForAll(address,address)": {
        "details": "See {IERC721-isApprovedForAll}."
      },
      "name()": {
        "details": "See {IERC721Metadata-name}."
      },
      "ownerOf(uint256)": {
        "details": "See {IERC721-ownerOf}."
      },
      "safeTransferFrom(address,address,uint256)": {
        "details": "See {IERC721-safeTransferFrom}."
      },
      "safeTransferFrom(address,address,uint256,bytes)": {
        "details": "See {IERC721-safeTransferFrom}."
      },
      "setApprovalForAll(address,bool)": {
        "details": "See {IERC721-setApprovalForAll}."
      },
      "supportsInterface(bytes4)": {
        "details": "See {IERC165-supportsInterface}."
      },
      "symbol()": {
        "details": "See {IERC721Metadata-symbol}."
      },
      "tokenURI(uint256)": {
        "details": "See {IERC721Metadata-tokenURI}."
      },
      "transferFrom(address,address,uint256)": {
        "details": "See {IERC721-transferFrom}."
      }
    },
    "version": 1
  },
  "userdoc": {
    "kind": "user",
    "methods": {},
    "version": 1
  }
}