{
  "contractName": "Auction",
  "abi": [
    {
      "inputs": [],
      "stateMutability": "nonpayable",
      "type": "constructor"
    },
    {
      "inputs": [],
      "name": "getNum",
      "outputs": [
        {
          "internalType": "uint256",
          "name": "",
          "type": "uint256"
        }
      ],
      "stateMutability": "view",
      "type": "function",
      "constant": true
    },
    {
      "inputs": [
        {
          "internalType": "uint256",
          "name": "newNum",
          "type": "uint256"
        }
      ],
      "name": "setNum",
      "outputs": [],
      "stateMutability": "nonpayable",
      "type": "function"
    },
    {
      "inputs": [
        {
          "internalType": "uint256",
          "name": "id",
          "type": "uint256"
        },
        {
          "internalType": "string",
          "name": "_name",
          "type": "string"
        },
        {
          "internalType": "string",
          "name": "_phone",
          "type": "string"
        },
        {
          "internalType": "string",
          "name": "_email",
          "type": "string"
        },
        {
          "internalType": "string",
          "name": "_adhar",
          "type": "string"
        },
        {
          "internalType": "string",
          "name": "_complaint",
          "type": "string"
        },
        {
          "internalType": "string",
          "name": "_suspect",
          "type": "string"
        },
        {
          "internalType": "string",
          "name": "_date",
          "type": "string"
        },
        {
          "internalType": "string",
          "name": "_place",
          "type": "string"
        }
      ],
      "name": "addFIR",
      "outputs": [],
      "stateMutability": "nonpayable",
      "type": "function"
    },
    {
      "inputs": [
        {
          "internalType": "uint256",
          "name": "_id",
          "type": "uint256"
        }
      ],
      "name": "getFIR",
      "outputs": [
        {
          "components": [
            {
              "internalType": "string",
              "name": "name",
              "type": "string"
            },
            {
              "internalType": "string",
              "name": "phone",
              "type": "string"
            },
            {
              "internalType": "string",
              "name": "email",
              "type": "string"
            },
            {
              "internalType": "string",
              "name": "adhar",
              "type": "string"
            },
            {
              "internalType": "string",
              "name": "complaint",
              "type": "string"
            },
            {
              "internalType": "string",
              "name": "suspect",
              "type": "string"
            },
            {
              "internalType": "string",
              "name": "date",
              "type": "string"
            },
            {
              "internalType": "string",
              "name": "place",
              "type": "string"
            }
          ],
          "internalType": "struct Auction.fir",
          "name": "",
          "type": "tuple"
        }
      ],
      "stateMutability": "view",
      "type": "function",
      "constant": true
    }
  ],
  "bytecode": "0x60806040526104d26000553480156200001757600080fd5b50620001db6130396040518060400160405280600881526020017f616268697368656b0000000000000000000000000000000000000000000000008152506040518060400160405280600581526020017f31323334350000000000000000000000000000000000000000000000000000008152506040518060400160405280600f81526020017f616263406578616d706c652e636f6d00000000000000000000000000000000008152506040518060400160405280600681526020017f35343333323100000000000000000000000000000000000000000000000000008152506040518060400160405280600c81526020017f70686f6e652073746f6c656e00000000000000000000000000000000000000008152506040518060400160405280600981526020017f73686f7274206d616e00000000000000000000000000000000000000000000008152506040518060400160405280600a81526020017f32332f30312f32303230000000000000000000000000000000000000000000008152506040518060400160405280600781526020017f6c75636b6e6f7700000000000000000000000000000000000000000000000000815250620003a460201b60201c565b6200039e6134226040518060400160405280600881526020017f616268697368656b0000000000000000000000000000000000000000000000008152506040518060400160405280600581526020017f31323334350000000000000000000000000000000000000000000000000000008152506040518060400160405280600f81526020017f616263406578616d706c652e636f6d00000000000000000000000000000000008152506040518060400160405280600781526020017f35313233333231000000000000000000000000000000000000000000000000008152506040518060400160405280600c81526020017f70686f6e652073746f6c656e00000000000000000000000000000000000000008152506040518060400160405280600981526020017f73686f7274206d616e00000000000000000000000000000000000000000000008152506040518060400160405280600a81526020017f32372f30312f32303230000000000000000000000000000000000000000000008152506040518060400160405280600781526020017f6c75636b6e6f7700000000000000000000000000000000000000000000000000815250620003a460201b60201c565b6200066b565b620003ae62000511565b888160000181905250878160200181905250868160400181905250858160600181905250848160800181905250838160a00181905250828160c00181905250818160e0018190525080600160008c815260200190815260200160002060008201518160000190805190602001906200042892919062000556565b5060208201518160010190805190602001906200044792919062000556565b5060408201518160020190805190602001906200046692919062000556565b5060608201518160030190805190602001906200048592919062000556565b506080820151816004019080519060200190620004a492919062000556565b5060a0820151816005019080519060200190620004c392919062000556565b5060c0820151816006019080519060200190620004e292919062000556565b5060e08201518160070190805190602001906200050192919062000556565b5090505050505050505050505050565b60405180610100016040528060608152602001606081526020016060815260200160608152602001606081526020016060815260200160608152602001606081525090565b828054620005649062000635565b90600052602060002090601f016020900481019282620005885760008555620005d4565b82601f10620005a357805160ff1916838001178555620005d4565b82800160010185558215620005d4579182015b82811115620005d3578251825591602001919060010190620005b6565b5b509050620005e39190620005e7565b5090565b5b8082111562000602576000816000905550600101620005e8565b5090565b7f4e487b7100000000000000000000000000000000000000000000000000000000600052602260045260246000fd5b600060028204905060018216806200064e57607f821691505b6020821081141562000665576200066462000606565b5b50919050565b610d9e806200067b6000396000f3fe608060405234801561001057600080fd5b506004361061004c5760003560e01c806367e0badb14610051578063ace21cec1461006f578063cd16ecbf1461008b578063f1a5c418146100a7575b600080fd5b6100596100d7565b6040516100669190610804565b60405180910390f35b610089600480360381019061008491906109a5565b6100e0565b005b6100a560048036038101906100a09190610b4f565b61023b565b005b6100c160048036038101906100bc9190610b4f565b610245565b6040516100ce9190610ce5565b60405180910390f35b60008054905090565b6100e8610703565b888160000181905250878160200181905250868160400181905250858160600181905250848160800181905250838160a00181905250828160c00181905250818160e0018190525080600160008c81526020019081526020016000206000820151816000019080519060200190610160929190610748565b50602082015181600101908051906020019061017d929190610748565b50604082015181600201908051906020019061019a929190610748565b5060608201518160030190805190602001906101b7929190610748565b5060808201518160040190805190602001906101d4929190610748565b5060a08201518160050190805190602001906101f1929190610748565b5060c082015181600601908051906020019061020e929190610748565b5060e082015181600701908051906020019061022b929190610748565b5090505050505050505050505050565b8060008190555050565b61024d610703565b600160008381526020019081526020016000206040518061010001604052908160008201805461027c90610d36565b80601f01602080910402602001604051908101604052809291908181526020018280546102a890610d36565b80156102f55780601f106102ca576101008083540402835291602001916102f5565b820191906000526020600020905b8154815290600101906020018083116102d857829003601f168201915b5050505050815260200160018201805461030e90610d36565b80601f016020809104026020016040519081016040528092919081815260200182805461033a90610d36565b80156103875780601f1061035c57610100808354040283529160200191610387565b820191906000526020600020905b81548152906001019060200180831161036a57829003601f168201915b505050505081526020016002820180546103a090610d36565b80601f01602080910402602001604051908101604052809291908181526020018280546103cc90610d36565b80156104195780601f106103ee57610100808354040283529160200191610419565b820191906000526020600020905b8154815290600101906020018083116103fc57829003601f168201915b5050505050815260200160038201805461043290610d36565b80601f016020809104026020016040519081016040528092919081815260200182805461045e90610d36565b80156104ab5780601f10610480576101008083540402835291602001916104ab565b820191906000526020600020905b81548152906001019060200180831161048e57829003601f168201915b505050505081526020016004820180546104c490610d36565b80601f01602080910402602001604051908101604052809291908181526020018280546104f090610d36565b801561053d5780601f106105125761010080835404028352916020019161053d565b820191906000526020600020905b81548152906001019060200180831161052057829003601f168201915b5050505050815260200160058201805461055690610d36565b80601f016020809104026020016040519081016040528092919081815260200182805461058290610d36565b80156105cf5780601f106105a4576101008083540402835291602001916105cf565b820191906000526020600020905b8154815290600101906020018083116105b257829003601f168201915b505050505081526020016006820180546105e890610d36565b80601f016020809104026020016040519081016040528092919081815260200182805461061490610d36565b80156106615780601f1061063657610100808354040283529160200191610661565b820191906000526020600020905b81548152906001019060200180831161064457829003601f168201915b5050505050815260200160078201805461067a90610d36565b80601f01602080910402602001604051908101604052809291908181526020018280546106a690610d36565b80156106f35780601f106106c8576101008083540402835291602001916106f3565b820191906000526020600020905b8154815290600101906020018083116106d657829003601f168201915b5050505050815250509050919050565b60405180610100016040528060608152602001606081526020016060815260200160608152602001606081526020016060815260200160608152602001606081525090565b82805461075490610d36565b90600052602060002090601f01602090048101928261077657600085556107bd565b82601f1061078f57805160ff19168380011785556107bd565b828001600101855582156107bd579182015b828111156107bc5782518255916020019190600101906107a1565b5b5090506107ca91906107ce565b5090565b5b808211156107e75760008160009055506001016107cf565b5090565b6000819050919050565b6107fe816107eb565b82525050565b600060208201905061081960008301846107f5565b92915050565b6000604051905090565b600080fd5b600080fd5b61083c816107eb565b811461084757600080fd5b50565b60008135905061085981610833565b92915050565b600080fd5b600080fd5b6000601f19601f8301169050919050565b7f4e487b7100000000000000000000000000000000000000000000000000000000600052604160045260246000fd5b6108b282610869565b810181811067ffffffffffffffff821117156108d1576108d061087a565b5b80604052505050565b60006108e461081f565b90506108f082826108a9565b919050565b600067ffffffffffffffff8211156109105761090f61087a565b5b61091982610869565b9050602081019050919050565b82818337600083830152505050565b6000610948610943846108f5565b6108da565b90508281526020810184848401111561096457610963610864565b5b61096f848285610926565b509392505050565b600082601f83011261098c5761098b61085f565b5b813561099c848260208601610935565b91505092915050565b60008060008060008060008060006101208a8c0312156109c8576109c7610829565b5b60006109d68c828d0161084a565b99505060208a013567ffffffffffffffff8111156109f7576109f661082e565b5b610a038c828d01610977565b98505060408a013567ffffffffffffffff811115610a2457610a2361082e565b5b610a308c828d01610977565b97505060608a013567ffffffffffffffff811115610a5157610a5061082e565b5b610a5d8c828d01610977565b96505060808a013567ffffffffffffffff811115610a7e57610a7d61082e565b5b610a8a8c828d01610977565b95505060a08a013567ffffffffffffffff811115610aab57610aaa61082e565b5b610ab78c828d01610977565b94505060c08a013567ffffffffffffffff811115610ad857610ad761082e565b5b610ae48c828d01610977565b93505060e08a013567ffffffffffffffff811115610b0557610b0461082e565b5b610b118c828d01610977565b9250506101008a013567ffffffffffffffff811115610b3357610b3261082e565b5b610b3f8c828d01610977565b9150509295985092959850929598565b600060208284031215610b6557610b64610829565b5b6000610b738482850161084a565b91505092915050565b600081519050919050565b600082825260208201905092915050565b60005b83811015610bb6578082015181840152602081019050610b9b565b83811115610bc5576000848401525b50505050565b6000610bd682610b7c565b610be08185610b87565b9350610bf0818560208601610b98565b610bf981610869565b840191505092915050565b6000610100830160008301518482036000860152610c228282610bcb565b91505060208301518482036020860152610c3c8282610bcb565b91505060408301518482036040860152610c568282610bcb565b91505060608301518482036060860152610c708282610bcb565b91505060808301518482036080860152610c8a8282610bcb565b91505060a083015184820360a0860152610ca48282610bcb565b91505060c083015184820360c0860152610cbe8282610bcb565b91505060e083015184820360e0860152610cd88282610bcb565b9150508091505092915050565b60006020820190508181036000830152610cff8184610c04565b905092915050565b7f4e487b7100000000000000000000000000000000000000000000000000000000600052602260045260246000fd5b60006002820490506001821680610d4e57607f821691505b60208210811415610d6257610d61610d07565b5b5091905056fea264697066735822122093ef98605f24ec93002d4836814627319f237495595fd4bbf81746161873a99064736f6c634300080b0033",
  "immutableReferences": {},
  "source": "// SPDX-License-Identifier: MIT\r\npragma solidity ^0.8.0;\r\n\r\n\r\ncontract Auction {\r\n\r\n    uint num = 1234;\r\n\r\n\r\n    function getNum() public view returns(uint){\r\n        return num;\r\n    }\r\n\r\n    function setNum(uint newNum) public {\r\n        num = newNum;\r\n    }\r\n    \r\n    constructor(){\r\n        addFIR(12345,\"abhishek\",\"12345\",\"abc@example.com\",\"543321\",\"phone stolen\",\"short man\",\"23/01/2020\",\"lucknow\");\r\n        addFIR(13346,\"abhishek\",\"12345\",\"abc@example.com\",\"5123321\",\"phone stolen\",\"short man\",\"27/01/2020\",\"lucknow\");\r\n    }\r\n\r\n    mapping(uint256 => fir) firList;\r\n    \r\n    struct fir {\r\n        string name;\r\n        string phone;\r\n        string email;\r\n        string adhar;\r\n        string complaint;\r\n        string suspect;\r\n        string date;\r\n        string place;\r\n    }\r\n\r\n    function addFIR(uint256 id,string memory _name,string memory _phone,string memory _email,string memory _adhar,string memory _complaint,string memory _suspect,string memory _date,string memory _place) public {\r\n        fir memory cur;\r\n        cur.name = _name;\r\n        cur.phone = _phone;\r\n        cur.email = _email;\r\n        cur.adhar = _adhar;\r\n        cur.complaint = _complaint;\r\n        cur.suspect = _suspect;\r\n        cur.date = _date;\r\n        cur.place = _place;\r\n\r\n        firList[id] = cur;\r\n    }\r\n\r\n    function getFIR(uint256 _id) public view returns (fir memory){\r\n        return firList[_id];\r\n    }\r\n}",
  "sourcePath": "C:\\College  p\\Web3-NFT-Marketplace-Auction\\contracts\\Auction.sol",
  "compiler": {
    "name": "solc",
    "version": "0.8.11+commit.d7f03943.Emscripten.clang"
  },
  "schemaVersion": "3.4.13",
  "updatedAt": "2023-04-29T16:45:32.675Z",
  "networkType": "ethereum",
  "devdoc": {
    "kind": "dev",
    "methods": {},
    "version": 1
  },
  "userdoc": {
    "kind": "user",
    "methods": {},
    "version": 1
  }
}