{
  "contractName": "Records",
  "abi": [
    {
      "inputs": [],
      "stateMutability": "nonpayable",
      "type": "constructor"
    },
    {
      "inputs": [
        {
          "internalType": "uint256",
          "name": "id",
          "type": "uint256"
        },
        {
          "internalType": "string",
          "name": "_name",
          "type": "string"
        },
        {
          "internalType": "string",
          "name": "_phone",
          "type": "string"
        },
        {
          "internalType": "string",
          "name": "_email",
          "type": "string"
        },
        {
          "internalType": "string",
          "name": "_adhar",
          "type": "string"
        },
        {
          "internalType": "string",
          "name": "_complaint",
          "type": "string"
        },
        {
          "internalType": "string",
          "name": "_suspect",
          "type": "string"
        },
        {
          "internalType": "string",
          "name": "_date",
          "type": "string"
        },
        {
          "internalType": "string",
          "name": "_place",
          "type": "string"
        }
      ],
      "name": "addFIR",
      "outputs": [],
      "stateMutability": "nonpayable",
      "type": "function"
    },
    {
      "inputs": [
        {
          "internalType": "uint256",
          "name": "_id",
          "type": "uint256"
        }
      ],
      "name": "getFIR",
      "outputs": [
        {
          "components": [
            {
              "internalType": "string",
              "name": "name",
              "type": "string"
            },
            {
              "internalType": "string",
              "name": "phone",
              "type": "string"
            },
            {
              "internalType": "string",
              "name": "email",
              "type": "string"
            },
            {
              "internalType": "string",
              "name": "adhar",
              "type": "string"
            },
            {
              "internalType": "string",
              "name": "complaint",
              "type": "string"
            },
            {
              "internalType": "string",
              "name": "suspect",
              "type": "string"
            },
            {
              "internalType": "string",
              "name": "date",
              "type": "string"
            },
            {
              "internalType": "string",
              "name": "place",
              "type": "string"
            }
          ],
          "internalType": "struct Records.fir",
          "name": "",
          "type": "tuple"
        }
      ],
      "stateMutability": "view",
      "type": "function",
      "constant": true
    },
    {
      "inputs": [
        {
          "internalType": "string",
          "name": "name",
          "type": "string"
        },
        {
          "internalType": "string",
          "name": "email",
          "type": "string"
        },
        {
          "internalType": "string",
          "name": "phone",
          "type": "string"
        },
        {
          "internalType": "uint256",
          "name": "id",
          "type": "uint256"
        },
        {
          "internalType": "string",
          "name": "stationaddress",
          "type": "string"
        },
        {
          "internalType": "string",
          "name": "pincode",
          "type": "string"
        }
      ],
      "name": "addStation",
      "outputs": [],
      "stateMutability": "nonpayable",
      "type": "function"
    },
    {
      "inputs": [
        {
          "internalType": "uint256",
          "name": "id",
          "type": "uint256"
        }
      ],
      "name": "getStation",
      "outputs": [
        {
          "components": [
            {
              "internalType": "string",
              "name": "name",
              "type": "string"
            },
            {
              "internalType": "string",
              "name": "email",
              "type": "string"
            },
            {
              "internalType": "string",
              "name": "phone",
              "type": "string"
            },
            {
              "internalType": "uint256",
              "name": "id",
              "type": "uint256"
            },
            {
              "internalType": "string",
              "name": "stationaddress",
              "type": "string"
            },
            {
              "internalType": "string",
              "name": "pincode",
              "type": "string"
            }
          ],
          "internalType": "struct Records.station",
          "name": "",
          "type": "tuple"
        }
      ],
      "stateMutability": "view",
      "type": "function",
      "constant": true
    },
    {
      "inputs": [
        {
          "internalType": "string",
          "name": "name",
          "type": "string"
        },
        {
          "internalType": "string",
          "name": "email",
          "type": "string"
        },
        {
          "internalType": "string",
          "name": "phone",
          "type": "string"
        },
        {
          "internalType": "string",
          "name": "adhar",
          "type": "string"
        },
        {
          "internalType": "uint256",
          "name": "id",
          "type": "uint256"
        },
        {
          "internalType": "string",
          "name": "stationid",
          "type": "string"
        }
      ],
      "name": "addOfficer",
      "outputs": [],
      "stateMutability": "nonpayable",
      "type": "function"
    },
    {
      "inputs": [
        {
          "internalType": "uint256",
          "name": "id",
          "type": "uint256"
        }
      ],
      "name": "getOfficer",
      "outputs": [
        {
          "components": [
            {
              "internalType": "string",
              "name": "name",
              "type": "string"
            },
            {
              "internalType": "string",
              "name": "email",
              "type": "string"
            },
            {
              "internalType": "string",
              "name": "phone",
              "type": "string"
            },
            {
              "internalType": "string",
              "name": "adhar",
              "type": "string"
            },
            {
              "internalType": "uint256",
              "name": "id",
              "type": "uint256"
            },
            {
              "internalType": "string",
              "name": "stationid",
              "type": "string"
            }
          ],
          "internalType": "struct Records.officer",
          "name": "",
          "type": "tuple"
        }
      ],
      "stateMutability": "view",
      "type": "function",
      "constant": true
    },
    {
      "inputs": [
        {
          "internalType": "string",
          "name": "name",
          "type": "string"
        },
        {
          "internalType": "string",
          "name": "email",
          "type": "string"
        },
        {
          "internalType": "string",
          "name": "phone",
          "type": "string"
        },
        {
          "internalType": "string",
          "name": "adhar",
          "type": "string"
        },
        {
          "internalType": "string",
          "name": "id",
          "type": "string"
        }
      ],
      "name": "addAdmin",
      "outputs": [],
      "stateMutability": "nonpayable",
      "type": "function"
    },
    {
      "inputs": [
        {
          "internalType": "string",
          "name": "id",
          "type": "string"
        }
      ],
      "name": "getAdmin",
      "outputs": [
        {
          "components": [
            {
              "internalType": "string",
              "name": "name",
              "type": "string"
            },
            {
              "internalType": "string",
              "name": "email",
              "type": "string"
            },
            {
              "internalType": "string",
              "name": "phone",
              "type": "string"
            },
            {
              "internalType": "string",
              "name": "adhar",
              "type": "string"
            },
            {
              "internalType": "string",
              "name": "id",
              "type": "string"
            }
          ],
          "internalType": "struct Records.admin",
          "name": "",
          "type": "tuple"
        }
      ],
      "stateMutability": "view",
      "type": "function",
      "constant": true
    },
    {
      "inputs": [
        {
          "internalType": "string",
          "name": "id",
          "type": "string"
        }
      ],
      "name": "checkAdmin",
      "outputs": [
        {
          "internalType": "uint256",
          "name": "",
          "type": "uint256"
        }
      ],
      "stateMutability": "view",
      "type": "function",
      "constant": true
    },
    {
      "inputs": [
        {
          "internalType": "string",
          "name": "name",
          "type": "string"
        },
        {
          "internalType": "string",
          "name": "phone",
          "type": "string"
        },
        {
          "internalType": "string",
          "name": "adhar",
          "type": "string"
        },
        {
          "internalType": "uint256",
          "name": "id",
          "type": "uint256"
        },
        {
          "internalType": "uint256",
          "name": "firId",
          "type": "uint256"
        }
      ],
      "name": "addCriminal",
      "outputs": [],
      "stateMutability": "nonpayable",
      "type": "function"
    },
    {
      "inputs": [
        {
          "internalType": "uint256",
          "name": "id",
          "type": "uint256"
        }
      ],
      "name": "getCriminal",
      "outputs": [
        {
          "components": [
            {
              "internalType": "string",
              "name": "name",
              "type": "string"
            },
            {
              "internalType": "string",
              "name": "phone",
              "type": "string"
            },
            {
              "internalType": "string",
              "name": "adhar",
              "type": "string"
            },
            {
              "internalType": "uint256",
              "name": "id",
              "type": "uint256"
            },
            {
              "internalType": "uint256",
              "name": "firId",
              "type": "uint256"
            }
          ],
          "internalType": "struct Records.criminal",
          "name": "",
          "type": "tuple"
        }
      ],
      "stateMutability": "view",
      "type": "function",
      "constant": true
    }
  ],
  "bytecode": "0x60806040523480156200001157600080fd5b50620001d56130396040518060400160405280600881526020017f616268697368656b0000000000000000000000000000000000000000000000008152506040518060400160405280600581526020017f31323334350000000000000000000000000000000000000000000000000000008152506040518060400160405280600f81526020017f616263406578616d706c652e636f6d00000000000000000000000000000000008152506040518060400160405280600681526020017f35343333323100000000000000000000000000000000000000000000000000008152506040518060400160405280600c81526020017f70686f6e652073746f6c656e00000000000000000000000000000000000000008152506040518060400160405280600981526020017f73686f7274206d616e00000000000000000000000000000000000000000000008152506040518060400160405280600a81526020017f32332f30312f32303230000000000000000000000000000000000000000000008152506040518060400160405280600781526020017f6c75636b6e6f77000000000000000000000000000000000000000000000000008152506200079a60201b60201c565b620003986134226040518060400160405280600881526020017f616268697368656b0000000000000000000000000000000000000000000000008152506040518060400160405280600581526020017f31323334350000000000000000000000000000000000000000000000000000008152506040518060400160405280600f81526020017f616263406578616d706c652e636f6d00000000000000000000000000000000008152506040518060400160405280600781526020017f35313233333231000000000000000000000000000000000000000000000000008152506040518060400160405280600c81526020017f70686f6e652073746f6c656e00000000000000000000000000000000000000008152506040518060400160405280600981526020017f73686f7274206d616e00000000000000000000000000000000000000000000008152506040518060400160405280600a81526020017f32372f30312f32303230000000000000000000000000000000000000000000008152506040518060400160405280600781526020017f6c75636b6e6f77000000000000000000000000000000000000000000000000008152506200079a60201b60201c565b620004b96040518060400160405280600a81526020017f45585052455353574159000000000000000000000000000000000000000000008152506040518060400160405280600f81526020017f657870406578616d706c652e636f6d00000000000000000000000000000000008152506040518060400160405280600381526020017f31303000000000000000000000000000000000000000000000000000000000008152506105cf6040518060400160405280601181526020017f457870726573737761792c204e6f6964610000000000000000000000000000008152506040518060400160405280600681526020017f32303133303100000000000000000000000000000000000000000000000000008152506200090660201b60201c565b620005da6040518060400160405280600881526020017f416268697368656b0000000000000000000000000000000000000000000000008152506040518060400160405280601081526020017f61626869406578616d706c652e636f6d000000000000000000000000000000008152506040518060400160405280600a81526020017f32343137323834313233000000000000000000000000000000000000000000008152506040518060400160405280600d81526020017f31323632343637363132343736000000000000000000000000000000000000008152506107d16040518060400160405280600481526020017f313438370000000000000000000000000000000000000000000000000000000081525062000a0c60201b60201c565b620006dc6040518060400160405280600681526020017f41646d696e3100000000000000000000000000000000000000000000000000008152506040518060400160405280601281526020017f61646d696e31406578616d706c652e636f6d00000000000000000000000000008152506040518060400160405280600b81526020017f37323134393231363132340000000000000000000000000000000000000000008152506040518060400160405280600d81526020017f36333437313236393436313238000000000000000000000000000000000000008152506040518060600160405280602a81526020016200365c602a913962000b1260201b60201c565b620007946040518060400160405280600581526020017f48617273680000000000000000000000000000000000000000000000000000008152506040518060400160405280600a81526020017f32343738313232343132000000000000000000000000000000000000000000008152506040518060400160405280600d81526020017f31323436383931323438313238000000000000000000000000000000000000008152506115b361303962000c3660201b60201c565b62000fbf565b620007a462000cff565b888160000181905250878160200181905250868160400181905250858160600181905250848160800181905250838160a00181905250828160c00181905250818160e00181905250806000808c815260200190815260200160002060008201518160000190805190602001906200081d92919062000d44565b5060208201518160010190805190602001906200083c92919062000d44565b5060408201518160020190805190602001906200085b92919062000d44565b5060608201518160030190805190602001906200087a92919062000d44565b5060808201518160040190805190602001906200089992919062000d44565b5060a0820151816005019080519060200190620008b892919062000d44565b5060c0820151816006019080519060200190620008d792919062000d44565b5060e0820151816007019080519060200190620008f692919062000d44565b5090505050505050505050505050565b6200091062000dd5565b86816000018190525085816020018190525084816040018190525083816060018181525050828160800181905250818160a00181905250806001600086815260200190815260200160002060008201518160000190805190602001906200097992919062000d44565b5060208201518160010190805190602001906200099892919062000d44565b506040820151816002019080519060200190620009b792919062000d44565b50606082015181600301556080820151816004019080519060200190620009e092919062000d44565b5060a0820151816005019080519060200190620009ff92919062000d44565b5090505050505050505050565b62000a1662000e0b565b86816000018190525085816020018190525084816040018190525083816060018190525082816080018181525050818160a001819052508060026000858152602001908152602001600020600082015181600001908051906020019062000a7f92919062000d44565b50602082015181600101908051906020019062000a9e92919062000d44565b50604082015181600201908051906020019062000abd92919062000d44565b50606082015181600301908051906020019062000adc92919062000d44565b506080820151816004015560a082015181600501908051906020019062000b0592919062000d44565b5090505050505050505050565b62000b1c62000e41565b8581600001819052508381604001819052508481602001819052508281606001819052508181608001819052508060038360405162000b5c919062000f41565b9081526020016040518091039020600082015181600001908051906020019062000b8892919062000d44565b50602082015181600101908051906020019062000ba792919062000d44565b50604082015181600201908051906020019062000bc692919062000d44565b50606082015181600301908051906020019062000be592919062000d44565b50608082015181600401908051906020019062000c0492919062000d44565b50905050600160048360405162000c1c919062000f41565b908152602001604051809103902081905550505050505050565b62000c4062000e70565b85816000018190525084816020018190525082816060018181525050838160400181905250818160800181815250508060056000858152602001908152602001600020600082015181600001908051906020019062000ca192919062000d44565b50602082015181600101908051906020019062000cc092919062000d44565b50604082015181600201908051906020019062000cdf92919062000d44565b506060820151816003015560808201518160040155905050505050505050565b60405180610100016040528060608152602001606081526020016060815260200160608152602001606081526020016060815260200160608152602001606081525090565b82805462000d529062000f89565b90600052602060002090601f01602090048101928262000d76576000855562000dc2565b82601f1062000d9157805160ff191683800117855562000dc2565b8280016001018555821562000dc2579182015b8281111562000dc157825182559160200191906001019062000da4565b5b50905062000dd1919062000e9f565b5090565b6040518060c001604052806060815260200160608152602001606081526020016000815260200160608152602001606081525090565b6040518060c001604052806060815260200160608152602001606081526020016060815260200160008152602001606081525090565b6040518060a0016040528060608152602001606081526020016060815260200160608152602001606081525090565b6040518060a0016040528060608152602001606081526020016060815260200160008152602001600081525090565b5b8082111562000eba57600081600090555060010162000ea0565b5090565b600081519050919050565b600081905092915050565b60005b8381101562000ef457808201518184015260208101905062000ed7565b8381111562000f04576000848401525b50505050565b600062000f178262000ebe565b62000f23818562000ec9565b935062000f3581856020860162000ed4565b80840191505092915050565b600062000f4f828462000f0a565b915081905092915050565b7f4e487b7100000000000000000000000000000000000000000000000000000000600052602260045260246000fd5b6000600282049050600182168062000fa257607f821691505b6020821081141562000fb95762000fb862000f5a565b5b50919050565b61268d8062000fcf6000396000f3fe608060405234801561001057600080fd5b50600436106100a95760003560e01c8063654c004611610071578063654c00461461014e5780637f1c7d611461017e5780638818dfe7146101ae578063ace21cec146101de578063e6d218d9146101fa578063f1a5c4181461022a576100a9565b806301415ffb146100ae5780630912747e146100ca578063106e054d146100e6578063606b12f214610116578063638610c414610132575b600080fd5b6100c860048036038101906100c39190611acf565b61025a565b005b6100e460048036038101906100df9190611b9e565b61031b565b005b61010060048036038101906100fb9190611cb7565b610415565b60405161010d9190611e20565b60405180910390f35b610130600480360381019061012b9190611e42565b610726565b005b61014c60048036038101906101479190611f5b565b610820565b005b61016860048036038101906101639190611cb7565b610934565b60405161017591906120e6565b60405180910390f35b61019860048036038101906101939190611cb7565b610b2b565b6040516101a591906121ad565b60405180910390f35b6101c860048036038101906101c391906121cf565b610e3c565b6040516101d59190612227565b60405180910390f35b6101f860048036038101906101f39190612242565b610e64565b005b610214600480360381019061020f91906121cf565b610fbe565b604051610221919061247e565b60405180910390f35b610244600480360381019061023f9190611cb7565b6112d0565b6040516102519190612581565b60405180910390f35b61026261178d565b8581600001819052508481602001819052508281606001818152505083816040018190525081816080018181525050806005600085815260200190815260200160002060008201518160000190805190602001906102c19291906117bc565b5060208201518160010190805190602001906102de9291906117bc565b5060408201518160020190805190602001906102fb9291906117bc565b506060820151816003015560808201518160040155905050505050505050565b610323611842565b86816000018190525085816020018190525084816040018190525083816060018190525082816080018181525050818160a001819052508060026000858152602001908152602001600020600082015181600001908051906020019061038a9291906117bc565b5060208201518160010190805190602001906103a79291906117bc565b5060408201518160020190805190602001906103c49291906117bc565b5060608201518160030190805190602001906103e19291906117bc565b506080820151816004015560a08201518160050190805190602001906104089291906117bc565b5090505050505050505050565b61041d611878565b600160008381526020019081526020016000206040518060c001604052908160008201805461044b906125d2565b80601f0160208091040260200160405190810160405280929190818152602001828054610477906125d2565b80156104c45780601f10610499576101008083540402835291602001916104c4565b820191906000526020600020905b8154815290600101906020018083116104a757829003601f168201915b505050505081526020016001820180546104dd906125d2565b80601f0160208091040260200160405190810160405280929190818152602001828054610509906125d2565b80156105565780601f1061052b57610100808354040283529160200191610556565b820191906000526020600020905b81548152906001019060200180831161053957829003601f168201915b5050505050815260200160028201805461056f906125d2565b80601f016020809104026020016040519081016040528092919081815260200182805461059b906125d2565b80156105e85780601f106105bd576101008083540402835291602001916105e8565b820191906000526020600020905b8154815290600101906020018083116105cb57829003601f168201915b505050505081526020016003820154815260200160048201805461060b906125d2565b80601f0160208091040260200160405190810160405280929190818152602001828054610637906125d2565b80156106845780601f1061065957610100808354040283529160200191610684565b820191906000526020600020905b81548152906001019060200180831161066757829003601f168201915b5050505050815260200160058201805461069d906125d2565b80601f01602080910402602001604051908101604052809291908181526020018280546106c9906125d2565b80156107165780601f106106eb57610100808354040283529160200191610716565b820191906000526020600020905b8154815290600101906020018083116106f957829003601f168201915b5050505050815250509050919050565b61072e611878565b86816000018190525085816020018190525084816040018190525083816060018181525050828160800181905250818160a00181905250806001600086815260200190815260200160002060008201518160000190805190602001906107959291906117bc565b5060208201518160010190805190602001906107b29291906117bc565b5060408201518160020190805190602001906107cf9291906117bc565b506060820151816003015560808201518160040190805190602001906107f69291906117bc565b5060a08201518160050190805190602001906108139291906117bc565b5090505050505050505050565b6108286118ae565b858160000181905250838160400181905250848160200181905250828160600181905250818160800181905250806003836040516108669190612640565b908152602001604051809103902060008201518160000190805190602001906108909291906117bc565b5060208201518160010190805190602001906108ad9291906117bc565b5060408201518160020190805190602001906108ca9291906117bc565b5060608201518160030190805190602001906108e79291906117bc565b5060808201518160040190805190602001906109049291906117bc565b50905050600160048360405161091a9190612640565b908152602001604051809103902081905550505050505050565b61093c61178d565b600560008381526020019081526020016000206040518060a001604052908160008201805461096a906125d2565b80601f0160208091040260200160405190810160405280929190818152602001828054610996906125d2565b80156109e35780601f106109b8576101008083540402835291602001916109e3565b820191906000526020600020905b8154815290600101906020018083116109c657829003601f168201915b505050505081526020016001820180546109fc906125d2565b80601f0160208091040260200160405190810160405280929190818152602001828054610a28906125d2565b8015610a755780601f10610a4a57610100808354040283529160200191610a75565b820191906000526020600020905b815481529060010190602001808311610a5857829003601f168201915b50505050508152602001600282018054610a8e906125d2565b80601f0160208091040260200160405190810160405280929190818152602001828054610aba906125d2565b8015610b075780601f10610adc57610100808354040283529160200191610b07565b820191906000526020600020905b815481529060010190602001808311610aea57829003601f168201915b50505050508152602001600382015481526020016004820154815250509050919050565b610b33611842565b600260008381526020019081526020016000206040518060c0016040529081600082018054610b61906125d2565b80601f0160208091040260200160405190810160405280929190818152602001828054610b8d906125d2565b8015610bda5780601f10610baf57610100808354040283529160200191610bda565b820191906000526020600020905b815481529060010190602001808311610bbd57829003601f168201915b50505050508152602001600182018054610bf3906125d2565b80601f0160208091040260200160405190810160405280929190818152602001828054610c1f906125d2565b8015610c6c5780601f10610c4157610100808354040283529160200191610c6c565b820191906000526020600020905b815481529060010190602001808311610c4f57829003601f168201915b50505050508152602001600282018054610c85906125d2565b80601f0160208091040260200160405190810160405280929190818152602001828054610cb1906125d2565b8015610cfe5780601f10610cd357610100808354040283529160200191610cfe565b820191906000526020600020905b815481529060010190602001808311610ce157829003601f168201915b50505050508152602001600382018054610d17906125d2565b80601f0160208091040260200160405190810160405280929190818152602001828054610d43906125d2565b8015610d905780601f10610d6557610100808354040283529160200191610d90565b820191906000526020600020905b815481529060010190602001808311610d7357829003601f168201915b5050505050815260200160048201548152602001600582018054610db3906125d2565b80601f0160208091040260200160405190810160405280929190818152602001828054610ddf906125d2565b8015610e2c5780601f10610e0157610100808354040283529160200191610e2c565b820191906000526020600020905b815481529060010190602001808311610e0f57829003601f168201915b5050505050815250509050919050565b6000600482604051610e4e9190612640565b9081526020016040518091039020549050919050565b610e6c6118dd565b888160000181905250878160200181905250868160400181905250858160600181905250848160800181905250838160a00181905250828160c00181905250818160e00181905250806000808c81526020019081526020016000206000820151816000019080519060200190610ee39291906117bc565b506020820151816001019080519060200190610f009291906117bc565b506040820151816002019080519060200190610f1d9291906117bc565b506060820151816003019080519060200190610f3a9291906117bc565b506080820151816004019080519060200190610f579291906117bc565b5060a0820151816005019080519060200190610f749291906117bc565b5060c0820151816006019080519060200190610f919291906117bc565b5060e0820151816007019080519060200190610fae9291906117bc565b5090505050505050505050505050565b610fc66118ae565b600382604051610fd69190612640565b90815260200160405180910390206040518060a0016040529081600082018054610fff906125d2565b80601f016020809104026020016040519081016040528092919081815260200182805461102b906125d2565b80156110785780601f1061104d57610100808354040283529160200191611078565b820191906000526020600020905b81548152906001019060200180831161105b57829003601f168201915b50505050508152602001600182018054611091906125d2565b80601f01602080910402602001604051908101604052809291908181526020018280546110bd906125d2565b801561110a5780601f106110df5761010080835404028352916020019161110a565b820191906000526020600020905b8154815290600101906020018083116110ed57829003601f168201915b50505050508152602001600282018054611123906125d2565b80601f016020809104026020016040519081016040528092919081815260200182805461114f906125d2565b801561119c5780601f106111715761010080835404028352916020019161119c565b820191906000526020600020905b81548152906001019060200180831161117f57829003601f168201915b505050505081526020016003820180546111b5906125d2565b80601f01602080910402602001604051908101604052809291908181526020018280546111e1906125d2565b801561122e5780601f106112035761010080835404028352916020019161122e565b820191906000526020600020905b81548152906001019060200180831161121157829003601f168201915b50505050508152602001600482018054611247906125d2565b80601f0160208091040260200160405190810160405280929190818152602001828054611273906125d2565b80156112c05780601f10611295576101008083540402835291602001916112c0565b820191906000526020600020905b8154815290600101906020018083116112a357829003601f168201915b5050505050815250509050919050565b6112d86118dd565b60008083815260200190815260200160002060405180610100016040529081600082018054611306906125d2565b80601f0160208091040260200160405190810160405280929190818152602001828054611332906125d2565b801561137f5780601f106113545761010080835404028352916020019161137f565b820191906000526020600020905b81548152906001019060200180831161136257829003601f168201915b50505050508152602001600182018054611398906125d2565b80601f01602080910402602001604051908101604052809291908181526020018280546113c4906125d2565b80156114115780601f106113e657610100808354040283529160200191611411565b820191906000526020600020905b8154815290600101906020018083116113f457829003601f168201915b5050505050815260200160028201805461142a906125d2565b80601f0160208091040260200160405190810160405280929190818152602001828054611456906125d2565b80156114a35780601f10611478576101008083540402835291602001916114a3565b820191906000526020600020905b81548152906001019060200180831161148657829003601f168201915b505050505081526020016003820180546114bc906125d2565b80601f01602080910402602001604051908101604052809291908181526020018280546114e8906125d2565b80156115355780601f1061150a57610100808354040283529160200191611535565b820191906000526020600020905b81548152906001019060200180831161151857829003601f168201915b5050505050815260200160048201805461154e906125d2565b80601f016020809104026020016040519081016040528092919081815260200182805461157a906125d2565b80156115c75780601f1061159c576101008083540402835291602001916115c7565b820191906000526020600020905b8154815290600101906020018083116115aa57829003601f168201915b505050505081526020016005820180546115e0906125d2565b80601f016020809104026020016040519081016040528092919081815260200182805461160c906125d2565b80156116595780601f1061162e57610100808354040283529160200191611659565b820191906000526020600020905b81548152906001019060200180831161163c57829003601f168201915b50505050508152602001600682018054611672906125d2565b80601f016020809104026020016040519081016040528092919081815260200182805461169e906125d2565b80156116eb5780601f106116c0576101008083540402835291602001916116eb565b820191906000526020600020905b8154815290600101906020018083116116ce57829003601f168201915b50505050508152602001600782018054611704906125d2565b80601f0160208091040260200160405190810160405280929190818152602001828054611730906125d2565b801561177d5780601f106117525761010080835404028352916020019161177d565b820191906000526020600020905b81548152906001019060200180831161176057829003601f168201915b5050505050815250509050919050565b6040518060a0016040528060608152602001606081526020016060815260200160008152602001600081525090565b8280546117c8906125d2565b90600052602060002090601f0160209004810192826117ea5760008555611831565b82601f1061180357805160ff1916838001178555611831565b82800160010185558215611831579182015b82811115611830578251825591602001919060010190611815565b5b50905061183e9190611922565b5090565b6040518060c001604052806060815260200160608152602001606081526020016060815260200160008152602001606081525090565b6040518060c001604052806060815260200160608152602001606081526020016000815260200160608152602001606081525090565b6040518060a0016040528060608152602001606081526020016060815260200160608152602001606081525090565b60405180610100016040528060608152602001606081526020016060815260200160608152602001606081526020016060815260200160608152602001606081525090565b5b8082111561193b576000816000905550600101611923565b5090565b6000604051905090565b600080fd5b600080fd5b600080fd5b600080fd5b6000601f19601f8301169050919050565b7f4e487b7100000000000000000000000000000000000000000000000000000000600052604160045260246000fd5b6119a68261195d565b810181811067ffffffffffffffff821117156119c5576119c461196e565b5b80604052505050565b60006119d861193f565b90506119e4828261199d565b919050565b600067ffffffffffffffff821115611a0457611a0361196e565b5b611a0d8261195d565b9050602081019050919050565b82818337600083830152505050565b6000611a3c611a37846119e9565b6119ce565b905082815260208101848484011115611a5857611a57611958565b5b611a63848285611a1a565b509392505050565b600082601f830112611a8057611a7f611953565b5b8135611a90848260208601611a29565b91505092915050565b6000819050919050565b611aac81611a99565b8114611ab757600080fd5b50565b600081359050611ac981611aa3565b92915050565b600080600080600060a08688031215611aeb57611aea611949565b5b600086013567ffffffffffffffff811115611b0957611b0861194e565b5b611b1588828901611a6b565b955050602086013567ffffffffffffffff811115611b3657611b3561194e565b5b611b4288828901611a6b565b945050604086013567ffffffffffffffff811115611b6357611b6261194e565b5b611b6f88828901611a6b565b9350506060611b8088828901611aba565b9250506080611b9188828901611aba565b9150509295509295909350565b60008060008060008060c08789031215611bbb57611bba611949565b5b600087013567ffffffffffffffff811115611bd957611bd861194e565b5b611be589828a01611a6b565b965050602087013567ffffffffffffffff811115611c0657611c0561194e565b5b611c1289828a01611a6b565b955050604087013567ffffffffffffffff811115611c3357611c3261194e565b5b611c3f89828a01611a6b565b945050606087013567ffffffffffffffff811115611c6057611c5f61194e565b5b611c6c89828a01611a6b565b9350506080611c7d89828a01611aba565b92505060a087013567ffffffffffffffff811115611c9e57611c9d61194e565b5b611caa89828a01611a6b565b9150509295509295509295565b600060208284031215611ccd57611ccc611949565b5b6000611cdb84828501611aba565b91505092915050565b600081519050919050565b600082825260208201905092915050565b60005b83811015611d1e578082015181840152602081019050611d03565b83811115611d2d576000848401525b50505050565b6000611d3e82611ce4565b611d488185611cef565b9350611d58818560208601611d00565b611d618161195d565b840191505092915050565b611d7581611a99565b82525050565b600060c0830160008301518482036000860152611d988282611d33565b91505060208301518482036020860152611db28282611d33565b91505060408301518482036040860152611dcc8282611d33565b9150506060830151611de16060860182611d6c565b5060808301518482036080860152611df98282611d33565b91505060a083015184820360a0860152611e138282611d33565b9150508091505092915050565b60006020820190508181036000830152611e3a8184611d7b565b905092915050565b60008060008060008060c08789031215611e5f57611e5e611949565b5b600087013567ffffffffffffffff811115611e7d57611e7c61194e565b5b611e8989828a01611a6b565b965050602087013567ffffffffffffffff811115611eaa57611ea961194e565b5b611eb689828a01611a6b565b955050604087013567ffffffffffffffff811115611ed757611ed661194e565b5b611ee389828a01611a6b565b9450506060611ef489828a01611aba565b935050608087013567ffffffffffffffff811115611f1557611f1461194e565b5b611f2189828a01611a6b565b92505060a087013567ffffffffffffffff811115611f4257611f4161194e565b5b611f4e89828a01611a6b565b9150509295509295509295565b600080600080600060a08688031215611f7757611f76611949565b5b600086013567ffffffffffffffff811115611f9557611f9461194e565b5b611fa188828901611a6b565b955050602086013567ffffffffffffffff811115611fc257611fc161194e565b5b611fce88828901611a6b565b945050604086013567ffffffffffffffff811115611fef57611fee61194e565b5b611ffb88828901611a6b565b935050606086013567ffffffffffffffff81111561201c5761201b61194e565b5b61202888828901611a6b565b925050608086013567ffffffffffffffff8111156120495761204861194e565b5b61205588828901611a6b565b9150509295509295909350565b600060a083016000830151848203600086015261207f8282611d33565b915050602083015184820360208601526120998282611d33565b915050604083015184820360408601526120b38282611d33565b91505060608301516120c86060860182611d6c565b5060808301516120db6080860182611d6c565b508091505092915050565b600060208201905081810360008301526121008184612062565b905092915050565b600060c08301600083015184820360008601526121258282611d33565b9150506020830151848203602086015261213f8282611d33565b915050604083015184820360408601526121598282611d33565b915050606083015184820360608601526121738282611d33565b91505060808301516121886080860182611d6c565b5060a083015184820360a08601526121a08282611d33565b9150508091505092915050565b600060208201905081810360008301526121c78184612108565b905092915050565b6000602082840312156121e5576121e4611949565b5b600082013567ffffffffffffffff8111156122035761220261194e565b5b61220f84828501611a6b565b91505092915050565b61222181611a99565b82525050565b600060208201905061223c6000830184612218565b92915050565b60008060008060008060008060006101208a8c03121561226557612264611949565b5b60006122738c828d01611aba565b99505060208a013567ffffffffffffffff8111156122945761229361194e565b5b6122a08c828d01611a6b565b98505060408a013567ffffffffffffffff8111156122c1576122c061194e565b5b6122cd8c828d01611a6b565b97505060608a013567ffffffffffffffff8111156122ee576122ed61194e565b5b6122fa8c828d01611a6b565b96505060808a013567ffffffffffffffff81111561231b5761231a61194e565b5b6123278c828d01611a6b565b95505060a08a013567ffffffffffffffff8111156123485761234761194e565b5b6123548c828d01611a6b565b94505060c08a013567ffffffffffffffff8111156123755761237461194e565b5b6123818c828d01611a6b565b93505060e08a013567ffffffffffffffff8111156123a2576123a161194e565b5b6123ae8c828d01611a6b565b9250506101008a013567ffffffffffffffff8111156123d0576123cf61194e565b5b6123dc8c828d01611a6b565b9150509295985092959850929598565b600060a08301600083015184820360008601526124098282611d33565b915050602083015184820360208601526124238282611d33565b9150506040830151848203604086015261243d8282611d33565b915050606083015184820360608601526124578282611d33565b915050608083015184820360808601526124718282611d33565b9150508091505092915050565b6000602082019050818103600083015261249881846123ec565b905092915050565b60006101008301600083015184820360008601526124be8282611d33565b915050602083015184820360208601526124d88282611d33565b915050604083015184820360408601526124f28282611d33565b9150506060830151848203606086015261250c8282611d33565b915050608083015184820360808601526125268282611d33565b91505060a083015184820360a08601526125408282611d33565b91505060c083015184820360c086015261255a8282611d33565b91505060e083015184820360e08601526125748282611d33565b9150508091505092915050565b6000602082019050818103600083015261259b81846124a0565b905092915050565b7f4e487b7100000000000000000000000000000000000000000000000000000000600052602260045260246000fd5b600060028204905060018216806125ea57607f821691505b602082108114156125fe576125fd6125a3565b5b50919050565b600081905092915050565b600061261a82611ce4565b6126248185612604565b9350612634818560208601611d00565b80840191505092915050565b600061264c828461260f565b91508190509291505056fea26469706673582212209f6fca4f83870af016db4ceb2a2ced13708efe411664bc8eda53ee66d841d9e464736f6c634300080b0033307831313742363331346342443939663830623631383246463834366534333037343237423938393265",
  "immutableReferences": {},
  "source": "// SPDX-License-Identifier: MIT\r\npragma solidity ^0.8.0;\r\n\r\n\r\ncontract Records {\r\n\r\n    mapping(uint256 => fir) firList;\r\n    mapping(uint => station) stationList;\r\n    mapping(uint => officer) officerList;\r\n    mapping(string => admin) adminList;\r\n    mapping(string => uint) isAdmin;\r\n    mapping(uint => criminal) criminalList;\r\n\r\n    struct fir {\r\n        string name;\r\n        string phone;\r\n        string email;\r\n        string adhar;\r\n        string complaint;\r\n        string suspect;\r\n        string date;\r\n        string place;\r\n    }\r\n\r\n    struct station {\r\n        string name;\r\n        string email;\r\n        string phone;\r\n        uint id;\r\n        string stationaddress;\r\n        string pincode;\r\n    }\r\n\r\n    struct officer {\r\n        string name;\r\n        string email;\r\n        string phone;\r\n        string adhar;\r\n        uint id;\r\n        string stationid;\r\n    }\r\n\r\n    struct admin {\r\n        string name;\r\n        string email;\r\n        string phone;\r\n        string adhar;\r\n        string id;\r\n    }\r\n\r\n    struct criminal {\r\n        string name;\r\n        string phone;\r\n        string adhar;\r\n        uint id;\r\n        uint firId;\r\n    }\r\n\r\n    function addFIR(uint256 id,string memory _name,string memory _phone,string memory _email,string memory _adhar,string memory _complaint,string memory _suspect,string memory _date,string memory _place) public {\r\n        fir memory cur;\r\n        cur.name = _name;\r\n        cur.phone = _phone;\r\n        cur.email = _email;\r\n        cur.adhar = _adhar;\r\n        cur.complaint = _complaint;\r\n        cur.suspect = _suspect;\r\n        cur.date = _date;\r\n        cur.place = _place;\r\n\r\n        firList[id] = cur;\r\n    }\r\n\r\n    function getFIR(uint256 _id) public view returns (fir memory){\r\n        return firList[_id];\r\n    }\r\n    function addStation(string memory name,\r\n        string memory email,\r\n        string memory phone,\r\n        uint id,\r\n        string memory stationaddress,\r\n        string memory pincode) public {\r\n\r\n            station memory cur;\r\n            cur.name= name;\r\n            cur.email = email;\r\n            cur.phone = phone;\r\n            cur.id = id;\r\n            cur.stationaddress = stationaddress;\r\n            cur.pincode = pincode;\r\n\r\n            stationList[id] = cur;\r\n    }\r\n\r\n    function getStation(uint id) public view returns (station memory){\r\n        return stationList[id];\r\n    }\r\n\r\n\r\n    function addOfficer(string memory name,\r\n        string memory email,\r\n        string memory phone,\r\n        string memory adhar,\r\n        uint id,\r\n        string memory stationid) public {\r\n\r\n            officer memory cur;\r\n            cur.name = name;\r\n            cur.email = email;\r\n            cur.phone= phone;\r\n            cur.adhar = adhar;\r\n            cur.id = id;\r\n            cur.stationid = stationid;\r\n            officerList[id] = cur;\r\n        }\r\n\r\n    function getOfficer(uint id) public view returns (officer memory){\r\n        return officerList[id];\r\n    }\r\n\r\n    function addAdmin(string memory name,\r\n        string memory email,\r\n        string memory phone,\r\n        string memory adhar,\r\n        string memory id) public {\r\n            admin memory cur;\r\n            cur.name = name;\r\n            cur.phone = phone;\r\n            cur.email = email;\r\n            cur.adhar = adhar;\r\n            cur.id = id;\r\n            adminList[id] = cur;\r\n            isAdmin[id] = 1;\r\n        }\r\n\r\n    function getAdmin(string memory id) public view returns (admin memory){\r\n        return adminList[id];\r\n    }\r\n\r\n    function checkAdmin(string memory id) public view returns (uint) {\r\n        return isAdmin[id];\r\n    }\r\n\r\n\r\n    function addCriminal(string memory name,\r\n        string memory phone,\r\n        string memory adhar,\r\n        uint id,\r\n        uint firId) public {\r\n            criminal memory cur;\r\n\r\n            cur.name = name;\r\n            cur.phone = phone;\r\n            cur.id = id;\r\n            cur.adhar = adhar;\r\n            cur.firId = firId;\r\n\r\n            criminalList[id] = cur;\r\n\r\n        }\r\n\r\n    function getCriminal(uint id) public view returns (criminal memory){\r\n        return criminalList[id];\r\n    }\r\n\r\n     constructor(){\r\n        addFIR(12345,\"abhishek\",\"12345\",\"abc@example.com\",\"543321\",\"phone stolen\",\"short man\",\"23/01/2020\",\"lucknow\");\r\n        addFIR(13346,\"abhishek\",\"12345\",\"abc@example.com\",\"5123321\",\"phone stolen\",\"short man\",\"27/01/2020\",\"lucknow\");\r\n        addStation(\"EXPRESSWAY\", \"exp@example.com\", \"100\", 1487, \"Expressway, Noida\", \"201301\");\r\n        addOfficer(\"Abhishek\", \"abhi@example.com\", \"2417284123\", \"1262467612476\", 2001, \"1487\");\r\n        addAdmin(\"Admin1\", \"admin1@example.com\", \"72149216124\", \"6347126946128\", \"0x117B6314cBD99f80b6182FF846e4307427B9892e\");\r\n        addCriminal(\"Harsh\", \"2478122412\", \"1246891248128\", 5555, 12345);\r\n    }\r\n    \r\n}",
  "sourcePath": "C:\\College  p\\Web3-NFT-Marketplace-Auction\\contracts\\Records.sol",
  "compiler": {
    "name": "solc",
    "version": "0.8.11+commit.d7f03943.Emscripten.clang"
  },
  "schemaVersion": "3.4.13",
  "updatedAt": "2023-05-01T08:19:35.814Z",
  "networkType": "ethereum",
  "devdoc": {
    "kind": "dev",
    "methods": {},
    "version": 1
  },
  "userdoc": {
    "kind": "user",
    "methods": {},
    "version": 1
  }
}