{
  "contractName": "Records",
  "abi": [
    {
      "inputs": [],
      "stateMutability": "nonpayable",
      "type": "constructor"
    },
    {
      "inputs": [
        {
          "internalType": "uint256",
          "name": "id",
          "type": "uint256"
        },
        {
          "internalType": "string",
          "name": "_name",
          "type": "string"
        },
        {
          "internalType": "string",
          "name": "_phone",
          "type": "string"
        },
        {
          "internalType": "string",
          "name": "_email",
          "type": "string"
        },
        {
          "internalType": "string",
          "name": "_adhar",
          "type": "string"
        },
        {
          "internalType": "string",
          "name": "_complaint",
          "type": "string"
        },
        {
          "internalType": "string",
          "name": "_suspect",
          "type": "string"
        },
        {
          "internalType": "string",
          "name": "_date",
          "type": "string"
        },
        {
          "internalType": "string",
          "name": "_place",
          "type": "string"
        },
        {
          "internalType": "string[]",
          "name": "crimes",
          "type": "string[]"
        }
      ],
      "name": "addFIR",
      "outputs": [],
      "stateMutability": "nonpayable",
      "type": "function"
    },
    {
      "inputs": [
        {
          "internalType": "uint256",
          "name": "_id",
          "type": "uint256"
        }
      ],
      "name": "getFIR",
      "outputs": [
        {
          "components": [
            {
              "internalType": "string",
              "name": "name",
              "type": "string"
            },
            {
              "internalType": "string",
              "name": "phone",
              "type": "string"
            },
            {
              "internalType": "string",
              "name": "email",
              "type": "string"
            },
            {
              "internalType": "string",
              "name": "adhar",
              "type": "string"
            },
            {
              "internalType": "string",
              "name": "complaint",
              "type": "string"
            },
            {
              "internalType": "string",
              "name": "suspect",
              "type": "string"
            },
            {
              "internalType": "string",
              "name": "date",
              "type": "string"
            },
            {
              "internalType": "string",
              "name": "place",
              "type": "string"
            },
            {
              "internalType": "string[]",
              "name": "crimes",
              "type": "string[]"
            }
          ],
          "internalType": "struct Records.fir",
          "name": "",
          "type": "tuple"
        }
      ],
      "stateMutability": "view",
      "type": "function",
      "constant": true
    },
    {
      "inputs": [
        {
          "internalType": "string",
          "name": "name",
          "type": "string"
        },
        {
          "internalType": "string",
          "name": "email",
          "type": "string"
        },
        {
          "internalType": "string",
          "name": "phone",
          "type": "string"
        },
        {
          "internalType": "uint256",
          "name": "id",
          "type": "uint256"
        },
        {
          "internalType": "string",
          "name": "stationaddress",
          "type": "string"
        },
        {
          "internalType": "string",
          "name": "pincode",
          "type": "string"
        }
      ],
      "name": "addStation",
      "outputs": [],
      "stateMutability": "nonpayable",
      "type": "function"
    },
    {
      "inputs": [
        {
          "internalType": "uint256",
          "name": "id",
          "type": "uint256"
        }
      ],
      "name": "getStation",
      "outputs": [
        {
          "components": [
            {
              "internalType": "string",
              "name": "name",
              "type": "string"
            },
            {
              "internalType": "string",
              "name": "email",
              "type": "string"
            },
            {
              "internalType": "string",
              "name": "phone",
              "type": "string"
            },
            {
              "internalType": "uint256",
              "name": "id",
              "type": "uint256"
            },
            {
              "internalType": "string",
              "name": "stationaddress",
              "type": "string"
            },
            {
              "internalType": "string",
              "name": "pincode",
              "type": "string"
            }
          ],
          "internalType": "struct Records.station",
          "name": "",
          "type": "tuple"
        }
      ],
      "stateMutability": "view",
      "type": "function",
      "constant": true
    },
    {
      "inputs": [
        {
          "internalType": "string",
          "name": "name",
          "type": "string"
        },
        {
          "internalType": "string",
          "name": "email",
          "type": "string"
        },
        {
          "internalType": "string",
          "name": "phone",
          "type": "string"
        },
        {
          "internalType": "string",
          "name": "adhar",
          "type": "string"
        },
        {
          "internalType": "uint256",
          "name": "id",
          "type": "uint256"
        },
        {
          "internalType": "string",
          "name": "stationid",
          "type": "string"
        }
      ],
      "name": "addOfficer",
      "outputs": [],
      "stateMutability": "nonpayable",
      "type": "function"
    },
    {
      "inputs": [
        {
          "internalType": "uint256",
          "name": "id",
          "type": "uint256"
        }
      ],
      "name": "getOfficer",
      "outputs": [
        {
          "components": [
            {
              "internalType": "string",
              "name": "name",
              "type": "string"
            },
            {
              "internalType": "string",
              "name": "email",
              "type": "string"
            },
            {
              "internalType": "string",
              "name": "phone",
              "type": "string"
            },
            {
              "internalType": "string",
              "name": "adhar",
              "type": "string"
            },
            {
              "internalType": "uint256",
              "name": "id",
              "type": "uint256"
            },
            {
              "internalType": "string",
              "name": "stationid",
              "type": "string"
            }
          ],
          "internalType": "struct Records.officer",
          "name": "",
          "type": "tuple"
        }
      ],
      "stateMutability": "view",
      "type": "function",
      "constant": true
    },
    {
      "inputs": [
        {
          "internalType": "string",
          "name": "name",
          "type": "string"
        },
        {
          "internalType": "string",
          "name": "email",
          "type": "string"
        },
        {
          "internalType": "string",
          "name": "phone",
          "type": "string"
        },
        {
          "internalType": "string",
          "name": "adhar",
          "type": "string"
        },
        {
          "internalType": "string",
          "name": "id",
          "type": "string"
        }
      ],
      "name": "addAdmin",
      "outputs": [],
      "stateMutability": "nonpayable",
      "type": "function"
    },
    {
      "inputs": [
        {
          "internalType": "string",
          "name": "id",
          "type": "string"
        }
      ],
      "name": "getAdmin",
      "outputs": [
        {
          "components": [
            {
              "internalType": "string",
              "name": "name",
              "type": "string"
            },
            {
              "internalType": "string",
              "name": "email",
              "type": "string"
            },
            {
              "internalType": "string",
              "name": "phone",
              "type": "string"
            },
            {
              "internalType": "string",
              "name": "adhar",
              "type": "string"
            },
            {
              "internalType": "string",
              "name": "id",
              "type": "string"
            }
          ],
          "internalType": "struct Records.admin",
          "name": "",
          "type": "tuple"
        }
      ],
      "stateMutability": "view",
      "type": "function",
      "constant": true
    },
    {
      "inputs": [
        {
          "internalType": "string",
          "name": "id",
          "type": "string"
        }
      ],
      "name": "checkAdmin",
      "outputs": [
        {
          "internalType": "uint256",
          "name": "",
          "type": "uint256"
        }
      ],
      "stateMutability": "view",
      "type": "function",
      "constant": true
    },
    {
      "inputs": [
        {
          "internalType": "string",
          "name": "name",
          "type": "string"
        },
        {
          "internalType": "string",
          "name": "phone",
          "type": "string"
        },
        {
          "internalType": "string",
          "name": "adhar",
          "type": "string"
        },
        {
          "internalType": "uint256",
          "name": "id",
          "type": "uint256"
        },
        {
          "internalType": "uint256",
          "name": "firId",
          "type": "uint256"
        }
      ],
      "name": "addCriminal",
      "outputs": [],
      "stateMutability": "nonpayable",
      "type": "function"
    },
    {
      "inputs": [
        {
          "internalType": "uint256",
          "name": "id",
          "type": "uint256"
        }
      ],
      "name": "getCriminal",
      "outputs": [
        {
          "components": [
            {
              "internalType": "string",
              "name": "name",
              "type": "string"
            },
            {
              "internalType": "string",
              "name": "phone",
              "type": "string"
            },
            {
              "internalType": "string",
              "name": "adhar",
              "type": "string"
            },
            {
              "internalType": "uint256",
              "name": "id",
              "type": "uint256"
            },
            {
              "internalType": "uint256",
              "name": "firId",
              "type": "uint256"
            },
            {
              "internalType": "string[]",
              "name": "crimes",
              "type": "string[]"
            }
          ],
          "internalType": "struct Records.criminal",
          "name": "",
          "type": "tuple"
        }
      ],
      "stateMutability": "view",
      "type": "function",
      "constant": true
    }
  ],
  "bytecode": "0x60806040523480156200001157600080fd5b506000600267ffffffffffffffff811115620000325762000031620016da565b5b6040519080825280602002602001820160405280156200006757816020015b6060815260200190600190039081620000515790505b5090506040518060400160405280600581526020017f546865667400000000000000000000000000000000000000000000000000000081525081600081518110620000b757620000b662001709565b5b60200260200101819052506040518060400160405280600781526020017f41737361756c7400000000000000000000000000000000000000000000000000815250816001815181106200010f576200010e62001709565b5b6020026020010181905250620002de6130396040518060400160405280600881526020017f616268697368656b0000000000000000000000000000000000000000000000008152506040518060400160405280600581526020017f31323334350000000000000000000000000000000000000000000000000000008152506040518060400160405280600f81526020017f616263406578616d706c652e636f6d00000000000000000000000000000000008152506040518060400160405280600681526020017f35343333323100000000000000000000000000000000000000000000000000008152506040518060400160405280600c81526020017f70686f6e652073746f6c656e00000000000000000000000000000000000000008152506040518060400160405280600981526020017f73686f7274206d616e00000000000000000000000000000000000000000000008152506040518060400160405280600a81526020017f32332f30312f32303230000000000000000000000000000000000000000000008152506040518060400160405280600781526020017f6c75636b6e6f77000000000000000000000000000000000000000000000000008152508a620008a560201b60201c565b620004a26134226040518060400160405280600881526020017f616268697368656b0000000000000000000000000000000000000000000000008152506040518060400160405280600581526020017f31323334350000000000000000000000000000000000000000000000000000008152506040518060400160405280600f81526020017f616263406578616d706c652e636f6d00000000000000000000000000000000008152506040518060400160405280600781526020017f35313233333231000000000000000000000000000000000000000000000000008152506040518060400160405280600c81526020017f70686f6e652073746f6c656e00000000000000000000000000000000000000008152506040518060400160405280600981526020017f73686f7274206d616e00000000000000000000000000000000000000000000008152506040518060400160405280600a81526020017f32372f30312f32303230000000000000000000000000000000000000000000008152506040518060400160405280600781526020017f6c75636b6e6f77000000000000000000000000000000000000000000000000008152508a620008a560201b60201c565b620005c36040518060400160405280600a81526020017f45585052455353574159000000000000000000000000000000000000000000008152506040518060400160405280600f81526020017f657870406578616d706c652e636f6d00000000000000000000000000000000008152506040518060400160405280600381526020017f31303000000000000000000000000000000000000000000000000000000000008152506105cf6040518060400160405280601181526020017f457870726573737761792c204e6f6964610000000000000000000000000000008152506040518060400160405280600681526020017f323031333031000000000000000000000000000000000000000000000000000081525062000a3c60201b60201c565b620006e46040518060400160405280600881526020017f416268697368656b0000000000000000000000000000000000000000000000008152506040518060400160405280601081526020017f61626869406578616d706c652e636f6d000000000000000000000000000000008152506040518060400160405280600a81526020017f32343137323834313233000000000000000000000000000000000000000000008152506040518060400160405280600d81526020017f31323632343637363132343736000000000000000000000000000000000000008152506107d16040518060400160405280600481526020017f313438370000000000000000000000000000000000000000000000000000000081525062000b4260201b60201c565b620007e66040518060400160405280600681526020017f41646d696e3100000000000000000000000000000000000000000000000000008152506040518060400160405280601281526020017f61646d696e31406578616d706c652e636f6d00000000000000000000000000008152506040518060400160405280600b81526020017f37323134393231363132340000000000000000000000000000000000000000008152506040518060400160405280600d81526020017f36333437313236393436313238000000000000000000000000000000000000008152506040518060600160405280602a815260200162004949602a913962000c4860201b60201c565b6200089e6040518060400160405280600581526020017f48617273680000000000000000000000000000000000000000000000000000008152506040518060400160405280600a81526020017f32343738313232343132000000000000000000000000000000000000000000008152506040518060400160405280600d81526020017f31323436383931323438313238000000000000000000000000000000000000008152506115b361303962000d6c60201b60201c565b5062001839565b620008af62001438565b898160000181905250888160200181905250878160400181905250868160600181905250858160800181905250848160a00181905250838160c00181905250828160e0018190525081816101000181905250806000808d815260200190815260200160002060008201518160000190805190602001906200093292919062001484565b5060208201518160010190805190602001906200095192919062001484565b5060408201518160020190805190602001906200097092919062001484565b5060608201518160030190805190602001906200098f92919062001484565b506080820151816004019080519060200190620009ae92919062001484565b5060a0820151816005019080519060200190620009cd92919062001484565b5060c0820151816006019080519060200190620009ec92919062001484565b5060e082015181600701908051906020019062000a0b92919062001484565b5061010082015181600801908051906020019062000a2b92919062001515565b509050505050505050505050505050565b62000a466200157c565b86816000018190525085816020018190525084816040018190525083816060018181525050828160800181905250818160a001819052508060016000868152602001908152602001600020600082015181600001908051906020019062000aaf92919062001484565b50602082015181600101908051906020019062000ace92919062001484565b50604082015181600201908051906020019062000aed92919062001484565b5060608201518160030155608082015181600401908051906020019062000b1692919062001484565b5060a082015181600501908051906020019062000b3592919062001484565b5090505050505050505050565b62000b4c620015b2565b86816000018190525085816020018190525084816040018190525083816060018190525082816080018181525050818160a001819052508060026000858152602001908152602001600020600082015181600001908051906020019062000bb592919062001484565b50602082015181600101908051906020019062000bd492919062001484565b50604082015181600201908051906020019062000bf392919062001484565b50606082015181600301908051906020019062000c1292919062001484565b506080820151816004015560a082015181600501908051906020019062000c3b92919062001484565b5090505050505050505050565b62000c52620015e8565b8581600001819052508381604001819052508481602001819052508281606001819052508181608001819052508060038360405162000c929190620017bb565b9081526020016040518091039020600082015181600001908051906020019062000cbe92919062001484565b50602082015181600101908051906020019062000cdd92919062001484565b50604082015181600201908051906020019062000cfc92919062001484565b50606082015181600301908051906020019062000d1b92919062001484565b50608082015181600401908051906020019062000d3a92919062001484565b50905050600160048360405162000d529190620017bb565b908152602001604051809103902081905550505050505050565b62000d7662001617565b60008060008481526020019081526020016000206040518061012001604052908160008201805462000da89062001803565b80601f016020809104026020016040519081016040528092919081815260200182805462000dd69062001803565b801562000e275780601f1062000dfb5761010080835404028352916020019162000e27565b820191906000526020600020905b81548152906001019060200180831162000e0957829003601f168201915b5050505050815260200160018201805462000e429062001803565b80601f016020809104026020016040519081016040528092919081815260200182805462000e709062001803565b801562000ec15780601f1062000e955761010080835404028352916020019162000ec1565b820191906000526020600020905b81548152906001019060200180831162000ea357829003601f168201915b5050505050815260200160028201805462000edc9062001803565b80601f016020809104026020016040519081016040528092919081815260200182805462000f0a9062001803565b801562000f5b5780601f1062000f2f5761010080835404028352916020019162000f5b565b820191906000526020600020905b81548152906001019060200180831162000f3d57829003601f168201915b5050505050815260200160038201805462000f769062001803565b80601f016020809104026020016040519081016040528092919081815260200182805462000fa49062001803565b801562000ff55780601f1062000fc95761010080835404028352916020019162000ff5565b820191906000526020600020905b81548152906001019060200180831162000fd757829003601f168201915b50505050508152602001600482018054620010109062001803565b80601f01602080910402602001604051908101604052809291908181526020018280546200103e9062001803565b80156200108f5780601f1062001063576101008083540402835291602001916200108f565b820191906000526020600020905b8154815290600101906020018083116200107157829003601f168201915b50505050508152602001600582018054620010aa9062001803565b80601f0160208091040260200160405190810160405280929190818152602001828054620010d89062001803565b8015620011295780601f10620010fd5761010080835404028352916020019162001129565b820191906000526020600020905b8154815290600101906020018083116200110b57829003601f168201915b50505050508152602001600682018054620011449062001803565b80601f0160208091040260200160405190810160405280929190818152602001828054620011729062001803565b8015620011c35780601f106200119757610100808354040283529160200191620011c3565b820191906000526020600020905b815481529060010190602001808311620011a557829003601f168201915b50505050508152602001600782018054620011de9062001803565b80601f01602080910402602001604051908101604052809291908181526020018280546200120c9062001803565b80156200125d5780601f1062001231576101008083540402835291602001916200125d565b820191906000526020600020905b8154815290600101906020018083116200123f57829003601f168201915b5050505050815260200160088201805480602002602001604051908101604052809291908181526020016000905b8282101562001341578382906000526020600020018054620012ad9062001803565b80601f0160208091040260200160405190810160405280929190818152602001828054620012db9062001803565b80156200132c5780601f1062001300576101008083540402835291602001916200132c565b820191906000526020600020905b8154815290600101906020018083116200130e57829003601f168201915b5050505050815260200190600101906200128b565b5050505081525050905086826000018190525085826020018190525083826060018181525050848260400181905250828260800181815250508061010001518260a0018190525081600560008681526020019081526020016000206000820151816000019080519060200190620013ba92919062001484565b506020820151816001019080519060200190620013d992919062001484565b506040820151816002019080519060200190620013f892919062001484565b50606082015181600301556080820151816004015560a08201518160050190805190602001906200142b92919062001515565b5090505050505050505050565b6040518061012001604052806060815260200160608152602001606081526020016060815260200160608152602001606081526020016060815260200160608152602001606081525090565b828054620014929062001803565b90600052602060002090601f016020900481019282620014b6576000855562001502565b82601f10620014d157805160ff191683800117855562001502565b8280016001018555821562001502579182015b8281111562001501578251825591602001919060010190620014e4565b5b5090506200151191906200164d565b5090565b82805482825590600052602060002090810192821562001569579160200282015b82811115620015685782518290805190602001906200155792919062001484565b509160200191906001019062001536565b5b5090506200157891906200166c565b5090565b6040518060c001604052806060815260200160608152602001606081526020016000815260200160608152602001606081525090565b6040518060c001604052806060815260200160608152602001606081526020016060815260200160008152602001606081525090565b6040518060a0016040528060608152602001606081526020016060815260200160608152602001606081525090565b6040518060c001604052806060815260200160608152602001606081526020016000815260200160008152602001606081525090565b5b80821115620016685760008160009055506001016200164e565b5090565b5b8082111562001690576000818162001686919062001694565b506001016200166d565b5090565b508054620016a29062001803565b6000825580601f10620016b65750620016d7565b601f016020900490600052602060002090810190620016d691906200164d565b5b50565b7f4e487b7100000000000000000000000000000000000000000000000000000000600052604160045260246000fd5b7f4e487b7100000000000000000000000000000000000000000000000000000000600052603260045260246000fd5b600081519050919050565b600081905092915050565b60005b838110156200176e57808201518184015260208101905062001751565b838111156200177e576000848401525b50505050565b6000620017918262001738565b6200179d818562001743565b9350620017af8185602086016200174e565b80840191505092915050565b6000620017c9828462001784565b915081905092915050565b7f4e487b7100000000000000000000000000000000000000000000000000000000600052602260045260246000fd5b600060028204905060018216806200181c57607f821691505b60208210811415620018335762001832620017d4565b5b50919050565b61310080620018496000396000f3fe608060405234801561001057600080fd5b50600436106100a95760003560e01c8063654c004611610071578063654c00461461014e5780637f1c7d611461017e5780638818dfe7146101ae578063e6d218d9146101de578063f1a5c4181461020e578063f78ff3b61461023e576100a9565b806301415ffb146100ae5780630912747e146100ca578063106e054d146100e6578063606b12f214610116578063638610c414610132575b600080fd5b6100c860048036038101906100c39190612333565b61025a565b005b6100e460048036038101906100df9190612402565b6108d2565b005b61010060048036038101906100fb919061251b565b6109cc565b60405161010d9190612684565b60405180910390f35b610130600480360381019061012b91906126a6565b610cdd565b005b61014c600480360381019061014791906127bf565b610dd7565b005b6101686004803603810190610163919061251b565b610eeb565b6040516101759190612a26565b60405180910390f35b6101986004803603810190610193919061251b565b6111bb565b6040516101a59190612aed565b60405180910390f35b6101c860048036038101906101c39190612b0f565b6114cc565b6040516101d59190612b67565b60405180910390f35b6101f860048036038101906101f39190612b0f565b6114f4565b6040516102059190612c14565b60405180910390f35b6102286004803603810190610223919061251b565b611806565b6040516102359190612d33565b60405180910390f35b61025860048036038101906102539190612e3b565b611d9c565b005b610262611f1f565b60008060008481526020019081526020016000206040518061012001604052908160008201805461029290613045565b80601f01602080910402602001604051908101604052809291908181526020018280546102be90613045565b801561030b5780601f106102e05761010080835404028352916020019161030b565b820191906000526020600020905b8154815290600101906020018083116102ee57829003601f168201915b5050505050815260200160018201805461032490613045565b80601f016020809104026020016040519081016040528092919081815260200182805461035090613045565b801561039d5780601f106103725761010080835404028352916020019161039d565b820191906000526020600020905b81548152906001019060200180831161038057829003601f168201915b505050505081526020016002820180546103b690613045565b80601f01602080910402602001604051908101604052809291908181526020018280546103e290613045565b801561042f5780601f106104045761010080835404028352916020019161042f565b820191906000526020600020905b81548152906001019060200180831161041257829003601f168201915b5050505050815260200160038201805461044890613045565b80601f016020809104026020016040519081016040528092919081815260200182805461047490613045565b80156104c15780601f10610496576101008083540402835291602001916104c1565b820191906000526020600020905b8154815290600101906020018083116104a457829003601f168201915b505050505081526020016004820180546104da90613045565b80601f016020809104026020016040519081016040528092919081815260200182805461050690613045565b80156105535780601f1061052857610100808354040283529160200191610553565b820191906000526020600020905b81548152906001019060200180831161053657829003601f168201915b5050505050815260200160058201805461056c90613045565b80601f016020809104026020016040519081016040528092919081815260200182805461059890613045565b80156105e55780601f106105ba576101008083540402835291602001916105e5565b820191906000526020600020905b8154815290600101906020018083116105c857829003601f168201915b505050505081526020016006820180546105fe90613045565b80601f016020809104026020016040519081016040528092919081815260200182805461062a90613045565b80156106775780601f1061064c57610100808354040283529160200191610677565b820191906000526020600020905b81548152906001019060200180831161065a57829003601f168201915b5050505050815260200160078201805461069090613045565b80601f01602080910402602001604051908101604052809291908181526020018280546106bc90613045565b80156107095780601f106106de57610100808354040283529160200191610709565b820191906000526020600020905b8154815290600101906020018083116106ec57829003601f168201915b5050505050815260200160088201805480602002602001604051908101604052809291908181526020016000905b828210156107e357838290600052602060002001805461075690613045565b80601f016020809104026020016040519081016040528092919081815260200182805461078290613045565b80156107cf5780601f106107a4576101008083540402835291602001916107cf565b820191906000526020600020905b8154815290600101906020018083116107b257829003601f168201915b505050505081526020019060010190610737565b5050505081525050905086826000018190525085826020018190525083826060018181525050848260400181905250828260800181815250508061010001518260a001819052508160056000868152602001908152602001600020600082015181600001908051906020019061085a929190611f55565b506020820151816001019080519060200190610877929190611f55565b506040820151816002019080519060200190610894929190611f55565b50606082015181600301556080820151816004015560a08201518160050190805190602001906108c5929190611fdb565b5090505050505050505050565b6108da61203b565b86816000018190525085816020018190525084816040018190525083816060018190525082816080018181525050818160a0018190525080600260008581526020019081526020016000206000820151816000019080519060200190610941929190611f55565b50602082015181600101908051906020019061095e929190611f55565b50604082015181600201908051906020019061097b929190611f55565b506060820151816003019080519060200190610998929190611f55565b506080820151816004015560a08201518160050190805190602001906109bf929190611f55565b5090505050505050505050565b6109d4612071565b600160008381526020019081526020016000206040518060c0016040529081600082018054610a0290613045565b80601f0160208091040260200160405190810160405280929190818152602001828054610a2e90613045565b8015610a7b5780601f10610a5057610100808354040283529160200191610a7b565b820191906000526020600020905b815481529060010190602001808311610a5e57829003601f168201915b50505050508152602001600182018054610a9490613045565b80601f0160208091040260200160405190810160405280929190818152602001828054610ac090613045565b8015610b0d5780601f10610ae257610100808354040283529160200191610b0d565b820191906000526020600020905b815481529060010190602001808311610af057829003601f168201915b50505050508152602001600282018054610b2690613045565b80601f0160208091040260200160405190810160405280929190818152602001828054610b5290613045565b8015610b9f5780601f10610b7457610100808354040283529160200191610b9f565b820191906000526020600020905b815481529060010190602001808311610b8257829003601f168201915b5050505050815260200160038201548152602001600482018054610bc290613045565b80601f0160208091040260200160405190810160405280929190818152602001828054610bee90613045565b8015610c3b5780601f10610c1057610100808354040283529160200191610c3b565b820191906000526020600020905b815481529060010190602001808311610c1e57829003601f168201915b50505050508152602001600582018054610c5490613045565b80601f0160208091040260200160405190810160405280929190818152602001828054610c8090613045565b8015610ccd5780601f10610ca257610100808354040283529160200191610ccd565b820191906000526020600020905b815481529060010190602001808311610cb057829003601f168201915b5050505050815250509050919050565b610ce5612071565b86816000018190525085816020018190525084816040018190525083816060018181525050828160800181905250818160a0018190525080600160008681526020019081526020016000206000820151816000019080519060200190610d4c929190611f55565b506020820151816001019080519060200190610d69929190611f55565b506040820151816002019080519060200190610d86929190611f55565b50606082015181600301556080820151816004019080519060200190610dad929190611f55565b5060a0820151816005019080519060200190610dca929190611f55565b5090505050505050505050565b610ddf6120a7565b85816000018190525083816040018190525084816020018190525082816060018190525081816080018190525080600383604051610e1d91906130b3565b90815260200160405180910390206000820151816000019080519060200190610e47929190611f55565b506020820151816001019080519060200190610e64929190611f55565b506040820151816002019080519060200190610e81929190611f55565b506060820151816003019080519060200190610e9e929190611f55565b506080820151816004019080519060200190610ebb929190611f55565b509050506001600483604051610ed191906130b3565b908152602001604051809103902081905550505050505050565b610ef3611f1f565b600560008381526020019081526020016000206040518060c0016040529081600082018054610f2190613045565b80601f0160208091040260200160405190810160405280929190818152602001828054610f4d90613045565b8015610f9a5780601f10610f6f57610100808354040283529160200191610f9a565b820191906000526020600020905b815481529060010190602001808311610f7d57829003601f168201915b50505050508152602001600182018054610fb390613045565b80601f0160208091040260200160405190810160405280929190818152602001828054610fdf90613045565b801561102c5780601f106110015761010080835404028352916020019161102c565b820191906000526020600020905b81548152906001019060200180831161100f57829003601f168201915b5050505050815260200160028201805461104590613045565b80601f016020809104026020016040519081016040528092919081815260200182805461107190613045565b80156110be5780601f10611093576101008083540402835291602001916110be565b820191906000526020600020905b8154815290600101906020018083116110a157829003601f168201915b50505050508152602001600382015481526020016004820154815260200160058201805480602002602001604051908101604052809291908181526020016000905b828210156111ac57838290600052602060002001805461111f90613045565b80601f016020809104026020016040519081016040528092919081815260200182805461114b90613045565b80156111985780601f1061116d57610100808354040283529160200191611198565b820191906000526020600020905b81548152906001019060200180831161117b57829003601f168201915b505050505081526020019060010190611100565b50505050815250509050919050565b6111c361203b565b600260008381526020019081526020016000206040518060c00160405290816000820180546111f190613045565b80601f016020809104026020016040519081016040528092919081815260200182805461121d90613045565b801561126a5780601f1061123f5761010080835404028352916020019161126a565b820191906000526020600020905b81548152906001019060200180831161124d57829003601f168201915b5050505050815260200160018201805461128390613045565b80601f01602080910402602001604051908101604052809291908181526020018280546112af90613045565b80156112fc5780601f106112d1576101008083540402835291602001916112fc565b820191906000526020600020905b8154815290600101906020018083116112df57829003601f168201915b5050505050815260200160028201805461131590613045565b80601f016020809104026020016040519081016040528092919081815260200182805461134190613045565b801561138e5780601f106113635761010080835404028352916020019161138e565b820191906000526020600020905b81548152906001019060200180831161137157829003601f168201915b505050505081526020016003820180546113a790613045565b80601f01602080910402602001604051908101604052809291908181526020018280546113d390613045565b80156114205780601f106113f557610100808354040283529160200191611420565b820191906000526020600020905b81548152906001019060200180831161140357829003601f168201915b505050505081526020016004820154815260200160058201805461144390613045565b80601f016020809104026020016040519081016040528092919081815260200182805461146f90613045565b80156114bc5780601f10611491576101008083540402835291602001916114bc565b820191906000526020600020905b81548152906001019060200180831161149f57829003601f168201915b5050505050815250509050919050565b60006004826040516114de91906130b3565b9081526020016040518091039020549050919050565b6114fc6120a7565b60038260405161150c91906130b3565b90815260200160405180910390206040518060a001604052908160008201805461153590613045565b80601f016020809104026020016040519081016040528092919081815260200182805461156190613045565b80156115ae5780601f10611583576101008083540402835291602001916115ae565b820191906000526020600020905b81548152906001019060200180831161159157829003601f168201915b505050505081526020016001820180546115c790613045565b80601f01602080910402602001604051908101604052809291908181526020018280546115f390613045565b80156116405780601f1061161557610100808354040283529160200191611640565b820191906000526020600020905b81548152906001019060200180831161162357829003601f168201915b5050505050815260200160028201805461165990613045565b80601f016020809104026020016040519081016040528092919081815260200182805461168590613045565b80156116d25780601f106116a7576101008083540402835291602001916116d2565b820191906000526020600020905b8154815290600101906020018083116116b557829003601f168201915b505050505081526020016003820180546116eb90613045565b80601f016020809104026020016040519081016040528092919081815260200182805461171790613045565b80156117645780601f1061173957610100808354040283529160200191611764565b820191906000526020600020905b81548152906001019060200180831161174757829003601f168201915b5050505050815260200160048201805461177d90613045565b80601f01602080910402602001604051908101604052809291908181526020018280546117a990613045565b80156117f65780601f106117cb576101008083540402835291602001916117f6565b820191906000526020600020905b8154815290600101906020018083116117d957829003601f168201915b5050505050815250509050919050565b61180e6120d6565b6000808381526020019081526020016000206040518061012001604052908160008201805461183c90613045565b80601f016020809104026020016040519081016040528092919081815260200182805461186890613045565b80156118b55780601f1061188a576101008083540402835291602001916118b5565b820191906000526020600020905b81548152906001019060200180831161189857829003601f168201915b505050505081526020016001820180546118ce90613045565b80601f01602080910402602001604051908101604052809291908181526020018280546118fa90613045565b80156119475780601f1061191c57610100808354040283529160200191611947565b820191906000526020600020905b81548152906001019060200180831161192a57829003601f168201915b5050505050815260200160028201805461196090613045565b80601f016020809104026020016040519081016040528092919081815260200182805461198c90613045565b80156119d95780601f106119ae576101008083540402835291602001916119d9565b820191906000526020600020905b8154815290600101906020018083116119bc57829003601f168201915b505050505081526020016003820180546119f290613045565b80601f0160208091040260200160405190810160405280929190818152602001828054611a1e90613045565b8015611a6b5780601f10611a4057610100808354040283529160200191611a6b565b820191906000526020600020905b815481529060010190602001808311611a4e57829003601f168201915b50505050508152602001600482018054611a8490613045565b80601f0160208091040260200160405190810160405280929190818152602001828054611ab090613045565b8015611afd5780601f10611ad257610100808354040283529160200191611afd565b820191906000526020600020905b815481529060010190602001808311611ae057829003601f168201915b50505050508152602001600582018054611b1690613045565b80601f0160208091040260200160405190810160405280929190818152602001828054611b4290613045565b8015611b8f5780601f10611b6457610100808354040283529160200191611b8f565b820191906000526020600020905b815481529060010190602001808311611b7257829003601f168201915b50505050508152602001600682018054611ba890613045565b80601f0160208091040260200160405190810160405280929190818152602001828054611bd490613045565b8015611c215780601f10611bf657610100808354040283529160200191611c21565b820191906000526020600020905b815481529060010190602001808311611c0457829003601f168201915b50505050508152602001600782018054611c3a90613045565b80601f0160208091040260200160405190810160405280929190818152602001828054611c6690613045565b8015611cb35780601f10611c8857610100808354040283529160200191611cb3565b820191906000526020600020905b815481529060010190602001808311611c9657829003601f168201915b5050505050815260200160088201805480602002602001604051908101604052809291908181526020016000905b82821015611d8d578382906000526020600020018054611d0090613045565b80601f0160208091040260200160405190810160405280929190818152602001828054611d2c90613045565b8015611d795780601f10611d4e57610100808354040283529160200191611d79565b820191906000526020600020905b815481529060010190602001808311611d5c57829003601f168201915b505050505081526020019060010190611ce1565b50505050815250509050919050565b611da46120d6565b898160000181905250888160200181905250878160400181905250868160600181905250858160800181905250848160a00181905250838160c00181905250828160e0018190525081816101000181905250806000808d81526020019081526020016000206000820151816000019080519060200190611e25929190611f55565b506020820151816001019080519060200190611e42929190611f55565b506040820151816002019080519060200190611e5f929190611f55565b506060820151816003019080519060200190611e7c929190611f55565b506080820151816004019080519060200190611e99929190611f55565b5060a0820151816005019080519060200190611eb6929190611f55565b5060c0820151816006019080519060200190611ed3929190611f55565b5060e0820151816007019080519060200190611ef0929190611f55565b50610100820151816008019080519060200190611f0e929190611fdb565b509050505050505050505050505050565b6040518060c001604052806060815260200160608152602001606081526020016000815260200160008152602001606081525090565b828054611f6190613045565b90600052602060002090601f016020900481019282611f835760008555611fca565b82601f10611f9c57805160ff1916838001178555611fca565b82800160010185558215611fca579182015b82811115611fc9578251825591602001919060010190611fae565b5b509050611fd79190612122565b5090565b82805482825590600052602060002090810192821561202a579160200282015b82811115612029578251829080519060200190612019929190611f55565b5091602001919060010190611ffb565b5b509050612037919061213f565b5090565b6040518060c001604052806060815260200160608152602001606081526020016060815260200160008152602001606081525090565b6040518060c001604052806060815260200160608152602001606081526020016000815260200160608152602001606081525090565b6040518060a0016040528060608152602001606081526020016060815260200160608152602001606081525090565b6040518061012001604052806060815260200160608152602001606081526020016060815260200160608152602001606081526020016060815260200160608152602001606081525090565b5b8082111561213b576000816000905550600101612123565b5090565b5b8082111561215f57600081816121569190612163565b50600101612140565b5090565b50805461216f90613045565b6000825580601f1061218157506121a0565b601f01602090049060005260206000209081019061219f9190612122565b5b50565b6000604051905090565b600080fd5b600080fd5b600080fd5b600080fd5b6000601f19601f8301169050919050565b7f4e487b7100000000000000000000000000000000000000000000000000000000600052604160045260246000fd5b61220a826121c1565b810181811067ffffffffffffffff82111715612229576122286121d2565b5b80604052505050565b600061223c6121a3565b90506122488282612201565b919050565b600067ffffffffffffffff821115612268576122676121d2565b5b612271826121c1565b9050602081019050919050565b82818337600083830152505050565b60006122a061229b8461224d565b612232565b9050828152602081018484840111156122bc576122bb6121bc565b5b6122c784828561227e565b509392505050565b600082601f8301126122e4576122e36121b7565b5b81356122f484826020860161228d565b91505092915050565b6000819050919050565b612310816122fd565b811461231b57600080fd5b50565b60008135905061232d81612307565b92915050565b600080600080600060a0868803121561234f5761234e6121ad565b5b600086013567ffffffffffffffff81111561236d5761236c6121b2565b5b612379888289016122cf565b955050602086013567ffffffffffffffff81111561239a576123996121b2565b5b6123a6888289016122cf565b945050604086013567ffffffffffffffff8111156123c7576123c66121b2565b5b6123d3888289016122cf565b93505060606123e48882890161231e565b92505060806123f58882890161231e565b9150509295509295909350565b60008060008060008060c0878903121561241f5761241e6121ad565b5b600087013567ffffffffffffffff81111561243d5761243c6121b2565b5b61244989828a016122cf565b965050602087013567ffffffffffffffff81111561246a576124696121b2565b5b61247689828a016122cf565b955050604087013567ffffffffffffffff811115612497576124966121b2565b5b6124a389828a016122cf565b945050606087013567ffffffffffffffff8111156124c4576124c36121b2565b5b6124d089828a016122cf565b93505060806124e189828a0161231e565b92505060a087013567ffffffffffffffff811115612502576125016121b2565b5b61250e89828a016122cf565b9150509295509295509295565b600060208284031215612531576125306121ad565b5b600061253f8482850161231e565b91505092915050565b600081519050919050565b600082825260208201905092915050565b60005b83811015612582578082015181840152602081019050612567565b83811115612591576000848401525b50505050565b60006125a282612548565b6125ac8185612553565b93506125bc818560208601612564565b6125c5816121c1565b840191505092915050565b6125d9816122fd565b82525050565b600060c08301600083015184820360008601526125fc8282612597565b915050602083015184820360208601526126168282612597565b915050604083015184820360408601526126308282612597565b915050606083015161264560608601826125d0565b506080830151848203608086015261265d8282612597565b91505060a083015184820360a08601526126778282612597565b9150508091505092915050565b6000602082019050818103600083015261269e81846125df565b905092915050565b60008060008060008060c087890312156126c3576126c26121ad565b5b600087013567ffffffffffffffff8111156126e1576126e06121b2565b5b6126ed89828a016122cf565b965050602087013567ffffffffffffffff81111561270e5761270d6121b2565b5b61271a89828a016122cf565b955050604087013567ffffffffffffffff81111561273b5761273a6121b2565b5b61274789828a016122cf565b945050606061275889828a0161231e565b935050608087013567ffffffffffffffff811115612779576127786121b2565b5b61278589828a016122cf565b92505060a087013567ffffffffffffffff8111156127a6576127a56121b2565b5b6127b289828a016122cf565b9150509295509295509295565b600080600080600060a086880312156127db576127da6121ad565b5b600086013567ffffffffffffffff8111156127f9576127f86121b2565b5b612805888289016122cf565b955050602086013567ffffffffffffffff811115612826576128256121b2565b5b612832888289016122cf565b945050604086013567ffffffffffffffff811115612853576128526121b2565b5b61285f888289016122cf565b935050606086013567ffffffffffffffff8111156128805761287f6121b2565b5b61288c888289016122cf565b925050608086013567ffffffffffffffff8111156128ad576128ac6121b2565b5b6128b9888289016122cf565b9150509295509295909350565b600081519050919050565b600082825260208201905092915050565b6000819050602082019050919050565b60006128fe8383612597565b905092915050565b6000602082019050919050565b600061291e826128c6565b61292881856128d1565b93508360208202850161293a856128e2565b8060005b85811015612976578484038952815161295785826128f2565b945061296283612906565b925060208a0199505060018101905061293e565b50829750879550505050505092915050565b600060c08301600083015184820360008601526129a58282612597565b915050602083015184820360208601526129bf8282612597565b915050604083015184820360408601526129d98282612597565b91505060608301516129ee60608601826125d0565b506080830151612a0160808601826125d0565b5060a083015184820360a0860152612a198282612913565b9150508091505092915050565b60006020820190508181036000830152612a408184612988565b905092915050565b600060c0830160008301518482036000860152612a658282612597565b91505060208301518482036020860152612a7f8282612597565b91505060408301518482036040860152612a998282612597565b91505060608301518482036060860152612ab38282612597565b9150506080830151612ac860808601826125d0565b5060a083015184820360a0860152612ae08282612597565b9150508091505092915050565b60006020820190508181036000830152612b078184612a48565b905092915050565b600060208284031215612b2557612b246121ad565b5b600082013567ffffffffffffffff811115612b4357612b426121b2565b5b612b4f848285016122cf565b91505092915050565b612b61816122fd565b82525050565b6000602082019050612b7c6000830184612b58565b92915050565b600060a0830160008301518482036000860152612b9f8282612597565b91505060208301518482036020860152612bb98282612597565b91505060408301518482036040860152612bd38282612597565b91505060608301518482036060860152612bed8282612597565b91505060808301518482036080860152612c078282612597565b9150508091505092915050565b60006020820190508181036000830152612c2e8184612b82565b905092915050565b6000610120830160008301518482036000860152612c548282612597565b91505060208301518482036020860152612c6e8282612597565b91505060408301518482036040860152612c888282612597565b91505060608301518482036060860152612ca28282612597565b91505060808301518482036080860152612cbc8282612597565b91505060a083015184820360a0860152612cd68282612597565b91505060c083015184820360c0860152612cf08282612597565b91505060e083015184820360e0860152612d0a8282612597565b915050610100830151848203610100860152612d268282612913565b9150508091505092915050565b60006020820190508181036000830152612d4d8184612c36565b905092915050565b600067ffffffffffffffff821115612d7057612d6f6121d2565b5b602082029050602081019050919050565b600080fd5b6000612d99612d9484612d55565b612232565b90508083825260208201905060208402830185811115612dbc57612dbb612d81565b5b835b81811015612e0357803567ffffffffffffffff811115612de157612de06121b7565b5b808601612dee89826122cf565b85526020850194505050602081019050612dbe565b5050509392505050565b600082601f830112612e2257612e216121b7565b5b8135612e32848260208601612d86565b91505092915050565b6000806000806000806000806000806101408b8d031215612e5f57612e5e6121ad565b5b6000612e6d8d828e0161231e565b9a505060208b013567ffffffffffffffff811115612e8e57612e8d6121b2565b5b612e9a8d828e016122cf565b99505060408b013567ffffffffffffffff811115612ebb57612eba6121b2565b5b612ec78d828e016122cf565b98505060608b013567ffffffffffffffff811115612ee857612ee76121b2565b5b612ef48d828e016122cf565b97505060808b013567ffffffffffffffff811115612f1557612f146121b2565b5b612f218d828e016122cf565b96505060a08b013567ffffffffffffffff811115612f4257612f416121b2565b5b612f4e8d828e016122cf565b95505060c08b013567ffffffffffffffff811115612f6f57612f6e6121b2565b5b612f7b8d828e016122cf565b94505060e08b013567ffffffffffffffff811115612f9c57612f9b6121b2565b5b612fa88d828e016122cf565b9350506101008b013567ffffffffffffffff811115612fca57612fc96121b2565b5b612fd68d828e016122cf565b9250506101208b013567ffffffffffffffff811115612ff857612ff76121b2565b5b6130048d828e01612e0d565b9150509295989b9194979a5092959850565b7f4e487b7100000000000000000000000000000000000000000000000000000000600052602260045260246000fd5b6000600282049050600182168061305d57607f821691505b6020821081141561307157613070613016565b5b50919050565b600081905092915050565b600061308d82612548565b6130978185613077565b93506130a7818560208601612564565b80840191505092915050565b60006130bf8284613082565b91508190509291505056fea264697066735822122051d06361a4840dba73f505b1cf4578af0d711cc4ff7b27728d8e915b9ef1b59f64736f6c634300080b0033307831313742363331346342443939663830623631383246463834366534333037343237423938393265",
  "immutableReferences": {},
  "source": "// SPDX-License-Identifier: MIT\r\npragma solidity ^0.8.0;\r\n\r\n\r\ncontract Records {\r\n\r\n    mapping(uint256 => fir) firList;\r\n    mapping(uint => station) stationList;\r\n    mapping(uint => officer) officerList;\r\n    mapping(string => admin) adminList;\r\n    mapping(string => uint) isAdmin;\r\n    mapping(uint => criminal) criminalList;\r\n\r\n    struct fir {\r\n        string name;\r\n        string phone;\r\n        string email;\r\n        string adhar;\r\n        string complaint;\r\n        string suspect;\r\n        string date;\r\n        string place;\r\n        string[] crimes;\r\n    }\r\n\r\n    struct station {\r\n        string name;\r\n        string email;\r\n        string phone;\r\n        uint id;\r\n        string stationaddress;\r\n        string pincode;\r\n    }\r\n\r\n    struct officer {\r\n        string name;\r\n        string email;\r\n        string phone;\r\n        string adhar;\r\n        uint id;\r\n        string stationid;\r\n    }\r\n\r\n    struct admin {\r\n        string name;\r\n        string email;\r\n        string phone;\r\n        string adhar;\r\n        string id;\r\n    }\r\n\r\n    struct criminal {\r\n        string name;\r\n        string phone;\r\n        string adhar;\r\n        uint id;\r\n        uint firId;\r\n        string []crimes;\r\n    }\r\n\r\n    function addFIR(uint256 id,string memory _name,string memory _phone,string memory _email,string memory _adhar,string memory _complaint,string memory _suspect,string memory _date,string memory _place, string[] memory crimes) public {\r\n        fir memory cur;\r\n        cur.name = _name;\r\n        cur.phone = _phone;\r\n        cur.email = _email;\r\n        cur.adhar = _adhar;\r\n        cur.complaint = _complaint;\r\n        cur.suspect = _suspect;\r\n        cur.date = _date;\r\n        cur.place = _place;\r\n        cur.crimes = crimes;\r\n\r\n        firList[id] = cur;\r\n    }\r\n\r\n    function getFIR(uint256 _id) public view returns (fir memory){\r\n        return firList[_id];\r\n    }\r\n    function addStation(string memory name,\r\n        string memory email,\r\n        string memory phone,\r\n        uint id,\r\n        string memory stationaddress,\r\n        string memory pincode) public {\r\n\r\n            station memory cur;\r\n            cur.name= name;\r\n            cur.email = email;\r\n            cur.phone = phone;\r\n            cur.id = id;\r\n            cur.stationaddress = stationaddress;\r\n            cur.pincode = pincode;\r\n\r\n            stationList[id] = cur;\r\n    }\r\n\r\n    function getStation(uint id) public view returns (station memory){\r\n        return stationList[id];\r\n    }\r\n\r\n\r\n    function addOfficer(string memory name,\r\n        string memory email,\r\n        string memory phone,\r\n        string memory adhar,\r\n        uint id,\r\n        string memory stationid) public {\r\n\r\n            officer memory cur;\r\n            cur.name = name;\r\n            cur.email = email;\r\n            cur.phone= phone;\r\n            cur.adhar = adhar;\r\n            cur.id = id;\r\n            cur.stationid = stationid;\r\n            officerList[id] = cur;\r\n        }\r\n\r\n    function getOfficer(uint id) public view returns (officer memory){\r\n        return officerList[id];\r\n    }\r\n\r\n    function addAdmin(string memory name,\r\n        string memory email,\r\n        string memory phone,\r\n        string memory adhar,\r\n        string memory id) public {\r\n            admin memory cur;\r\n            cur.name = name;\r\n            cur.phone = phone;\r\n            cur.email = email;\r\n            cur.adhar = adhar;\r\n            cur.id = id;\r\n            adminList[id] = cur;\r\n            isAdmin[id] = 1;\r\n        }\r\n\r\n    function getAdmin(string memory id) public view returns (admin memory){\r\n        return adminList[id];\r\n    }\r\n\r\n    function checkAdmin(string memory id) public view returns (uint) {\r\n        return isAdmin[id];\r\n    }\r\n\r\n\r\n    function addCriminal(string memory name,\r\n        string memory phone,\r\n        string memory adhar,\r\n        uint id,\r\n        uint firId) public {\r\n            criminal memory cur;\r\n            fir memory temp = firList[firId];\r\n            cur.name = name;\r\n            cur.phone = phone;\r\n            cur.id = id;\r\n            cur.adhar = adhar;\r\n            cur.firId = firId;\r\n            cur.crimes = temp.crimes;\r\n            criminalList[id] = cur;\r\n\r\n        }\r\n\r\n    function getCriminal(uint id) public view returns (criminal memory){\r\n        return criminalList[id];\r\n    }\r\n\r\n     constructor(){\r\n        string[] memory temp = new string[](2);\r\n        temp[0]=\"Theft\";\r\n        temp[1]=\"Assault\";\r\n        addFIR(12345,\"abhishek\",\"12345\",\"abc@example.com\",\"543321\",\"phone stolen\",\"short man\",\"23/01/2020\",\"lucknow\",temp);\r\n        addFIR(13346,\"abhishek\",\"12345\",\"abc@example.com\",\"5123321\",\"phone stolen\",\"short man\",\"27/01/2020\",\"lucknow\",temp);\r\n        addStation(\"EXPRESSWAY\", \"exp@example.com\", \"100\", 1487, \"Expressway, Noida\", \"201301\");\r\n        addOfficer(\"Abhishek\", \"abhi@example.com\", \"2417284123\", \"1262467612476\", 2001, \"1487\");\r\n        addAdmin(\"Admin1\", \"admin1@example.com\", \"72149216124\", \"6347126946128\", \"0x117B6314cBD99f80b6182FF846e4307427B9892e\");\r\n        addCriminal(\"Harsh\", \"2478122412\", \"1246891248128\", 5555, 12345);\r\n    }\r\n    \r\n}",
  "sourcePath": "C:\\College  p\\Web3-NFT-Marketplace-Auction\\contracts\\Records.sol",
  "compiler": {
    "name": "solc",
    "version": "0.8.11+commit.d7f03943.Emscripten.clang"
  },
  "schemaVersion": "3.4.13",
  "updatedAt": "2023-05-02T16:55:58.114Z",
  "networkType": "ethereum",
  "devdoc": {
    "kind": "dev",
    "methods": {},
    "version": 1
  },
  "userdoc": {
    "kind": "user",
    "methods": {},
    "version": 1
  }
}